{
  "_format": "hh-sol-artifact-1",
  "contractName": "BobaVerseArcade",
  "sourceName": "contracts/BobaVerseArcade.sol",
  "abi": [
    {
      "inputs": [],
      "stateMutability": "nonpayable",
      "type": "constructor"
    },
    {
      "anonymous": false,
      "inputs": [
        {
          "indexed": false,
          "internalType": "address",
          "name": "previousAdmin",
          "type": "address"
        },
        {
          "indexed": false,
          "internalType": "address",
          "name": "newAdmin",
          "type": "address"
        }
      ],
      "name": "AdminChanged",
      "type": "event"
    },
    {
      "anonymous": false,
      "inputs": [
        {
          "indexed": true,
          "internalType": "address",
          "name": "beacon",
          "type": "address"
        }
      ],
      "name": "BeaconUpgraded",
      "type": "event"
    },
    {
      "anonymous": false,
      "inputs": [
        {
          "indexed": false,
          "internalType": "uint8",
          "name": "version",
          "type": "uint8"
        }
      ],
      "name": "Initialized",
      "type": "event"
    },
    {
      "anonymous": false,
      "inputs": [
        {
          "indexed": false,
          "internalType": "address",
          "name": "account",
          "type": "address"
        }
      ],
      "name": "Paused",
      "type": "event"
    },
    {
      "anonymous": false,
      "inputs": [
        {
          "indexed": false,
          "internalType": "address",
          "name": "from",
          "type": "address"
        },
        {
          "indexed": false,
          "internalType": "uint256[]",
          "name": "ballPositions",
          "type": "uint256[]"
        },
        {
          "indexed": false,
          "internalType": "uint256",
          "name": "score",
          "type": "uint256"
        }
      ],
      "name": "PlinkoResult",
      "type": "event"
    },
    {
      "anonymous": false,
      "inputs": [
        {
          "indexed": true,
          "internalType": "bytes32",
          "name": "role",
          "type": "bytes32"
        },
        {
          "indexed": true,
          "internalType": "bytes32",
          "name": "previousAdminRole",
          "type": "bytes32"
        },
        {
          "indexed": true,
          "internalType": "bytes32",
          "name": "newAdminRole",
          "type": "bytes32"
        }
      ],
      "name": "RoleAdminChanged",
      "type": "event"
    },
    {
      "anonymous": false,
      "inputs": [
        {
          "indexed": true,
          "internalType": "bytes32",
          "name": "role",
          "type": "bytes32"
        },
        {
          "indexed": true,
          "internalType": "address",
          "name": "account",
          "type": "address"
        },
        {
          "indexed": true,
          "internalType": "address",
          "name": "sender",
          "type": "address"
        }
      ],
      "name": "RoleGranted",
      "type": "event"
    },
    {
      "anonymous": false,
      "inputs": [
        {
          "indexed": true,
          "internalType": "bytes32",
          "name": "role",
          "type": "bytes32"
        },
        {
          "indexed": true,
          "internalType": "address",
          "name": "account",
          "type": "address"
        },
        {
          "indexed": true,
          "internalType": "address",
          "name": "sender",
          "type": "address"
        }
      ],
      "name": "RoleRevoked",
      "type": "event"
    },
    {
      "anonymous": false,
      "inputs": [
        {
          "indexed": true,
          "internalType": "address",
          "name": "from",
          "type": "address"
        },
        {
          "indexed": false,
          "internalType": "address",
          "name": "_address",
          "type": "address"
        }
      ],
      "name": "TuringCreditSet",
      "type": "event"
    },
    {
      "anonymous": false,
      "inputs": [
        {
          "indexed": true,
          "internalType": "address",
          "name": "from",
          "type": "address"
        },
        {
          "indexed": false,
          "internalType": "uint256",
          "name": "fee",
          "type": "uint256"
        }
      ],
      "name": "TuringFeePaid",
      "type": "event"
    },
    {
      "anonymous": false,
      "inputs": [
        {
          "indexed": true,
          "internalType": "address",
          "name": "from",
          "type": "address"
        },
        {
          "indexed": false,
          "internalType": "address",
          "name": "_address",
          "type": "address"
        }
      ],
      "name": "TuringHelperSet",
      "type": "event"
    },
    {
      "anonymous": false,
      "inputs": [
        {
          "indexed": false,
          "internalType": "address",
          "name": "account",
          "type": "address"
        }
      ],
      "name": "Unpaused",
      "type": "event"
    },
    {
      "anonymous": false,
      "inputs": [
        {
          "indexed": true,
          "internalType": "address",
          "name": "implementation",
          "type": "address"
        }
      ],
      "name": "Upgraded",
      "type": "event"
    },
    {
      "inputs": [],
      "name": "DEFAULT_ADMIN_ROLE",
      "outputs": [
        {
          "internalType": "bytes32",
          "name": "",
          "type": "bytes32"
        }
      ],
      "stateMutability": "view",
      "type": "function"
    },
    {
      "inputs": [
        {
          "internalType": "enum IBobaVerseArcade.GameType",
          "name": "gameType",
          "type": "uint8"
        }
      ],
      "name": "getLeaderboard",
      "outputs": [
        {
          "internalType": "address[]",
          "name": "addresses",
          "type": "address[]"
        },
        {
          "internalType": "uint256[]",
          "name": "scores",
          "type": "uint256[]"
        }
      ],
      "stateMutability": "view",
      "type": "function"
    },
    {
      "inputs": [
        {
          "internalType": "enum IBobaVerseArcade.GameType",
          "name": "gameType",
          "type": "uint8"
        },
        {
          "internalType": "uint256",
          "name": "year",
          "type": "uint256"
        },
        {
          "internalType": "uint256",
          "name": "month",
          "type": "uint256"
        }
      ],
      "name": "getLeaderboardFor",
      "outputs": [
        {
          "internalType": "address[]",
          "name": "addresses",
          "type": "address[]"
        },
        {
          "internalType": "uint256[]",
          "name": "scores",
          "type": "uint256[]"
        }
      ],
      "stateMutability": "view",
      "type": "function"
    },
    {
      "inputs": [
        {
          "internalType": "bytes32",
          "name": "role",
          "type": "bytes32"
        }
      ],
      "name": "getRoleAdmin",
      "outputs": [
        {
          "internalType": "bytes32",
          "name": "",
          "type": "bytes32"
        }
      ],
      "stateMutability": "view",
      "type": "function"
    },
    {
      "inputs": [
        {
          "internalType": "bytes32",
          "name": "role",
          "type": "bytes32"
        },
        {
          "internalType": "uint256",
          "name": "index",
          "type": "uint256"
        }
      ],
      "name": "getRoleMember",
      "outputs": [
        {
          "internalType": "address",
          "name": "",
          "type": "address"
        }
      ],
      "stateMutability": "view",
      "type": "function"
    },
    {
      "inputs": [
        {
          "internalType": "bytes32",
          "name": "role",
          "type": "bytes32"
        }
      ],
      "name": "getRoleMemberCount",
      "outputs": [
        {
          "internalType": "uint256",
          "name": "",
          "type": "uint256"
        }
      ],
      "stateMutability": "view",
      "type": "function"
    },
    {
      "inputs": [
        {
          "internalType": "bytes32",
          "name": "role",
          "type": "bytes32"
        },
        {
          "internalType": "address",
          "name": "account",
          "type": "address"
        }
      ],
      "name": "grantRole",
      "outputs": [],
      "stateMutability": "nonpayable",
      "type": "function"
    },
    {
      "inputs": [
        {
          "internalType": "bytes32",
          "name": "role",
          "type": "bytes32"
        },
        {
          "internalType": "address",
          "name": "account",
          "type": "address"
        }
      ],
      "name": "hasRole",
      "outputs": [
        {
          "internalType": "bool",
          "name": "",
          "type": "bool"
        }
      ],
      "stateMutability": "view",
      "type": "function"
    },
    {
      "inputs": [],
      "name": "initialize",
      "outputs": [],
      "stateMutability": "nonpayable",
      "type": "function"
    },
    {
      "inputs": [],
      "name": "paused",
      "outputs": [
        {
          "internalType": "bool",
          "name": "",
          "type": "bool"
        }
      ],
      "stateMutability": "view",
      "type": "function"
    },
    {
      "inputs": [],
      "name": "playPlinko",
      "outputs": [],
      "stateMutability": "nonpayable",
      "type": "function"
    },
    {
      "inputs": [],
      "name": "proxiableUUID",
      "outputs": [
        {
          "internalType": "bytes32",
          "name": "",
          "type": "bytes32"
        }
      ],
      "stateMutability": "view",
      "type": "function"
    },
    {
      "inputs": [
        {
          "internalType": "bytes32",
          "name": "role",
          "type": "bytes32"
        },
        {
          "internalType": "address",
          "name": "account",
          "type": "address"
        }
      ],
      "name": "renounceRole",
      "outputs": [],
      "stateMutability": "nonpayable",
      "type": "function"
    },
    {
      "inputs": [
        {
          "internalType": "bytes32",
          "name": "role",
          "type": "bytes32"
        },
        {
          "internalType": "address",
          "name": "account",
          "type": "address"
        }
      ],
      "name": "revokeRole",
      "outputs": [],
      "stateMutability": "nonpayable",
      "type": "function"
    },
    {
      "inputs": [
        {
          "internalType": "bytes4",
          "name": "interfaceId",
          "type": "bytes4"
        }
      ],
      "name": "supportsInterface",
      "outputs": [
        {
          "internalType": "bool",
          "name": "",
          "type": "bool"
        }
      ],
      "stateMutability": "view",
      "type": "function"
    },
    {
      "inputs": [
        {
          "internalType": "address",
          "name": "newImplementation",
          "type": "address"
        }
      ],
      "name": "upgradeTo",
      "outputs": [],
      "stateMutability": "nonpayable",
      "type": "function"
    },
    {
      "inputs": [
        {
          "internalType": "address",
          "name": "newImplementation",
          "type": "address"
        },
        {
          "internalType": "bytes",
          "name": "data",
          "type": "bytes"
        }
      ],
      "name": "upgradeToAndCall",
      "outputs": [],
      "stateMutability": "payable",
      "type": "function"
    }
  ],
  "bytecode": "0x60a0604052306080523480156200001557600080fd5b506200002062000026565b620000e8565b600054610100900460ff1615620000935760405162461bcd60e51b815260206004820152602760248201527f496e697469616c697a61626c653a20636f6e747261637420697320696e697469604482015266616c697a696e6760c81b606482015260840160405180910390fd5b60005460ff9081161015620000e6576000805460ff191660ff9081179091556040519081527f7f26b83ff96e1f2b6a682f133852f6798a09c465da95921460cefb38474024989060200160405180910390a15b565b6080516124ff620001206000396000818161041f0152818161045f015281816104fe0152818161053e01526105cd01526124ff6000f3fe6080604052600436106100fe5760003560e01c80635c975abb116100955780639f1e7a2a116100645780639f1e7a2a1461029a578063a217fddf146102c8578063b71881c0146102dd578063ca15c873146102fd578063d547741f1461031d57600080fd5b80635c975abb146102155780638129fc1c1461022d5780639010d07c1461024257806391d148541461027a57600080fd5b80633659cfe6116100d15780633659cfe6146101b85780634f1ef286146101d857806352d1902d146101eb57806355c8b9571461020057600080fd5b806301ffc9a714610103578063248a9ca3146101385780632f2ff15d1461017657806336568abe14610198575b600080fd5b34801561010f57600080fd5b5061012361011e366004611e29565b61033d565b60405190151581526020015b60405180910390f35b34801561014457600080fd5b50610168610153366004611e53565b60009081526097602052604090206001015490565b60405190815260200161012f565b34801561018257600080fd5b50610196610191366004611e88565b610368565b005b3480156101a457600080fd5b506101966101b3366004611e88565b610392565b3480156101c457600080fd5b506101966101d3366004611eb4565b610415565b6101966101e6366004611ee5565b6104f4565b3480156101f757600080fd5b506101686105c0565b34801561020c57600080fd5b50610196610673565b34801561022157600080fd5b5060335460ff16610123565b34801561023957600080fd5b506101966108cb565b34801561024e57600080fd5b5061026261025d366004611fa7565b610a10565b6040516001600160a01b03909116815260200161012f565b34801561028657600080fd5b50610123610295366004611e88565b610a2f565b3480156102a657600080fd5b506102ba6102b5366004611fd8565b610a5a565b60405161012f92919061202e565b3480156102d457600080fd5b50610168600081565b3480156102e957600080fd5b506102ba6102f836600461208e565b610c10565b34801561030957600080fd5b50610168610318366004611e53565b610dad565b34801561032957600080fd5b50610196610338366004611e88565b610dc4565b60006001600160e01b03198216635a05180f60e01b1480610362575061036282610de9565b92915050565b60008281526097602052604090206001015461038381610e1e565b61038d8383610e28565b505050565b6001600160a01b03811633146104075760405162461bcd60e51b815260206004820152602f60248201527f416363657373436f6e74726f6c3a2063616e206f6e6c792072656e6f756e636560448201526e103937b632b9903337b91039b2b63360891b60648201526084015b60405180910390fd5b6104118282610e4a565b5050565b6001600160a01b037f000000000000000000000000000000000000000000000000000000000000000016300361045d5760405162461bcd60e51b81526004016103fe906120c1565b7f00000000000000000000000000000000000000000000000000000000000000006001600160a01b03166104a6600080516020612483833981519152546001600160a01b031690565b6001600160a01b0316146104cc5760405162461bcd60e51b81526004016103fe9061210d565b6104d581610e6c565b604080516000808252602082019092526104f191839190610e76565b50565b6001600160a01b037f000000000000000000000000000000000000000000000000000000000000000016300361053c5760405162461bcd60e51b81526004016103fe906120c1565b7f00000000000000000000000000000000000000000000000000000000000000006001600160a01b0316610585600080516020612483833981519152546001600160a01b031690565b6001600160a01b0316146105ab5760405162461bcd60e51b81526004016103fe9061210d565b6105b482610e6c565b61041182826001610e76565b6000306001600160a01b037f000000000000000000000000000000000000000000000000000000000000000016146106605760405162461bcd60e51b815260206004820152603860248201527f555550535570677261646561626c653a206d757374206e6f742062652063616c60448201527f6c6564207468726f7567682064656c656761746563616c6c000000000000000060648201526084016103fe565b5060008051602061248383398151915290565b61067b610fe1565b610683611027565b61068b611082565b61015c546040805163604a6fa960e01b815290516000926001600160a01b03169163604a6fa9916004808301926020929190829003018187875af11580156106d7573d6000803e3d6000fd5b505050506040513d601f19601f820116820180604052508101906106fb9190612159565b9050600061070d826103e860156111e7565b6040805160148082526102a0820190925291925060009190602082016102808036833701905050905060005b601481101561079757606483828151811061075657610756612172565b6020026020010151610768919061219e565b82828151811061077a5761077a612172565b60209081029190910101528061078f816121c8565b915050610739565b50600060c8836014815181106107af576107af612172565b60200260200101516107c1919061219e565b6107cc9060016121e1565b905060006107d94261128e565b905060006107e6426112ae565b60008381527fb90953adcbf35a931ac053a7d0fe43fdd42a03d188a6bab41f6e6ed74a0821d26020908152604080832084845290915281209192509061082c90336112c8565b9150508381101561087c5760008381527fb90953adcbf35a931ac053a7d0fe43fdd42a03d188a6bab41f6e6ed74a0821d260209081526040808320858452909152902061087a9033866112ef565b505b7f4a18ce930e868f657f5661e99757ae4f8baff782138c767a6f4595d779980dd63386866040516108af9392919061220a565b60405180910390a1505050505050506108c9600161012955565b565b600054610100900460ff16158080156108eb5750600054600160ff909116105b806109055750303b158015610905575060005460ff166001145b6109685760405162461bcd60e51b815260206004820152602e60248201527f496e697469616c697a61626c653a20636f6e747261637420697320616c72656160448201526d191e481a5b9a5d1a585b1a5e995960921b60648201526084016103fe565b6000805460ff19166001179055801561098b576000805461ff0019166101001790555b61099361130d565b61099b61133c565b6109a3611448565b6109c86020602160991b0173680e176b2bbdb2336063d0c82961bdb7a52cf13c61146f565b80156104f1576000805461ff0019169055604051600181527f7f26b83ff96e1f2b6a682f133852f6798a09c465da95921460cefb38474024989060200160405180910390a150565b600082815260c960205260408120610a2890836114c6565b9392505050565b60009182526097602090815260408084206001600160a01b0393909316845291905290205460ff1690565b6060806000610a684261128e565b90506000610a75426112ae565b90506000610ac76101f182888015610a8f57610a8f6121f4565b8015610a9d57610a9d6121f4565b815260208082019290925260409081016000908120878252835281812086825290925290206114d2565b90508067ffffffffffffffff811115610ae257610ae2611ecf565b604051908082528060200260200182016040528015610b0b578160200160208202803683370190505b5094508067ffffffffffffffff811115610b2757610b27611ecf565b604051908082528060200260200182016040528015610b50578160200160208202803683370190505b50935060005b81811115610c0757610baf816101f160008a8015610b7657610b766121f4565b8015610b8457610b846121f4565b81526020808201929092526040908101600090812089825283528181208882529092529020906114dd565b878381518110610bc157610bc1612172565b60200260200101878481518110610bda57610bda612172565b60209081029190910101919091526001600160a01b03909116905280610bff816121c8565b915050610b56565b50505050915091565b6060806000610c636101f182888015610c2b57610c2b6121f4565b8015610c3957610c396121f4565b815260208082019290925260409081016000908120898252835281812088825290925290206114d2565b90508067ffffffffffffffff811115610c7e57610c7e611ecf565b604051908082528060200260200182016040528015610ca7578160200160208202803683370190505b5092508067ffffffffffffffff811115610cc357610cc3611ecf565b604051908082528060200260200182016040528015610cec578160200160208202803683370190505b50915060005b81811115610da357610d4b816101f160008a8015610d1257610d126121f4565b8015610d2057610d206121f4565b8152602080820192909252604090810160009081208b825283528181208a82529092529020906114dd565b858381518110610d5d57610d5d612172565b60200260200101858481518110610d7657610d76612172565b60209081029190910101919091526001600160a01b03909116905280610d9b816121c8565b915050610cf2565b5050935093915050565b600081815260c960205260408120610362906114ec565b600082815260976020526040902060010154610ddf81610e1e565b61038d8383610e4a565b60006001600160e01b03198216637965db0b60e01b148061036257506301ffc9a760e01b6001600160e01b0319831614610362565b6104f181336114f6565b610e32828261154f565b600082815260c96020526040902061038d90826115d5565b610e5482826115ea565b600082815260c96020526040902061038d9082611651565b6104f16000610e1e565b7f4910fdfa16fed3260ed0e7147f7cc6da11a60208b5b9406d12a635614ffd91435460ff1615610ea95761038d83611666565b826001600160a01b03166352d1902d6040518163ffffffff1660e01b8152600401602060405180830381865afa925050508015610f03575060408051601f3d908101601f19168201909252610f0091810190612159565b60015b610f665760405162461bcd60e51b815260206004820152602e60248201527f45524331393637557067726164653a206e657720696d706c656d656e7461746960448201526d6f6e206973206e6f74205555505360901b60648201526084016103fe565b6000805160206124838339815191528114610fd55760405162461bcd60e51b815260206004820152602960248201527f45524331393637557067726164653a20756e737570706f727465642070726f786044820152681a58589b195555525160ba1b60648201526084016103fe565b5061038d838383611702565b60335460ff16156108c95760405162461bcd60e51b815260206004820152601060248201526f14185d5cd8589b194e881c185d5cd95960821b60448201526064016103fe565b6002610129540361107a5760405162461bcd60e51b815260206004820152601f60248201527f5265656e7472616e637947756172643a207265656e7472616e742063616c6c0060448201526064016103fe565b600261012955565b61015b5460408051637126fe6f60e11b815290516000926001600160a01b03169163e24dfcde9160048083019260209291908290030181865afa1580156110cd573d6000803e3d6000fd5b505050506040513d601f19601f820116820180604052508101906110f19190612159565b90508034146111425760405162461bcd60e51b815260206004820152601760248201527f496e73756666696369656e7420547572696e672046656500000000000000000060448201526064016103fe565b61015b5461015c54604051631fb1244f60e31b8152600481018490526001600160a01b03918216602482015291169063fd8922789083906044016000604051808303818588803b15801561119557600080fd5b505af11580156111a9573d6000803e3d6000fd5b50506040518481523393507f9d274ae0294d2443bf2deae07adf50a459e712b401fbc806742b3f45ef7cc4da9250602001905060405180910390a250565b60608167ffffffffffffffff81111561120257611202611ecf565b60405190808252806020026020018201604052801561122b578160200160208202803683370190505b5090508360005b83811015611285576000611246868461219e565b9050611252868461223e565b92508084838151811061126757611267612172565b6020908102919091010152508061127d816121c8565b915050611232565b50509392505050565b60006112a56112a0620151808461223e565b61172d565b50909392505050565b60006112c06112a0620151808461223e565b509392505050565b60008080806112e0866001600160a01b0387166118a1565b909450925050505b9250929050565b6000611305846001600160a01b038516846118db565b949350505050565b600054610100900460ff166113345760405162461bcd60e51b81526004016103fe90612252565b6108c96118f8565b600054610100900460ff166113635760405162461bcd60e51b81526004016103fe90612252565b61136b611448565b611376600033610e28565b6113a07fa49807205ce4d355092ef5a8a18f56e8913cf4a201fbe287825b095693c2177533610e28565b6113ca7f364d3d7565c7a8300c96fd53e065d19b65848d7b23b3191adcd55621c744223c33610e28565b6113f47f9f2df0fed2c77648de5860a4cc508cd0818c85b8b8a1ab4ceeef8d981c8956a633610e28565b61141e7ff18b77e1ef402111bacb54bd5e03494cbdba92fbd1bd3bbcc1ce77e69b42ea6c33610e28565b6108c97f52ba824bfabc2bcfcdf7f0edbb486ebb05e1836c90e78047efeb949990f72e5f33610e28565b600054610100900460ff166108c95760405162461bcd60e51b81526004016103fe90612252565b600054610100900460ff166114965760405162461bcd60e51b81526004016103fe90612252565b61015b80546001600160a01b039384166001600160a01b03199182161790915561015c8054929093169116179055565b6000610a28838361192b565b600061036282611955565b60008080806112e08686611960565b6000610362825490565b6115008282610a2f565b6104115761150d8161198b565b61151883602061199d565b6040516020016115299291906122c1565b60408051601f198184030181529082905262461bcd60e51b82526103fe91600401612336565b6115598282610a2f565b6104115760008281526097602090815260408083206001600160a01b03851684529091529020805460ff191660011790556115913390565b6001600160a01b0316816001600160a01b0316837f2f8788117e7eff1d82e926ec794901d17c78024a50270940304540a733656f0d60405160405180910390a45050565b6000610a28836001600160a01b038416611b39565b6115f48282610a2f565b156104115760008281526097602090815260408083206001600160a01b0385168085529252808320805460ff1916905551339285917ff6391f5c32d9c69d2a47ea670b442974b53935d1edc7fd64eb21e047a839171b9190a45050565b6000610a28836001600160a01b038416611b88565b6001600160a01b0381163b6116d35760405162461bcd60e51b815260206004820152602d60248201527f455243313936373a206e657720696d706c656d656e746174696f6e206973206e60448201526c1bdd08184818dbdb9d1c9858dd609a1b60648201526084016103fe565b60008051602061248383398151915280546001600160a01b0319166001600160a01b0392909216919091179055565b61170b83611c82565b6000825111806117185750805b1561038d576117278383611cc2565b50505050565b60008080838162253d8c6117448362010bd9612369565b61174e9190612369565b9050600062023ab1611761836004612391565b61176b91906123c1565b9050600461177c8262023ab1612391565b611787906003612369565b61179191906123c1565b61179b90836123ef565b9150600062164b096117ae846001612369565b6117ba90610fa0612391565b6117c491906123c1565b905060046117d4826105b5612391565b6117de91906123c1565b6117e890846123ef565b6117f390601f612369565b9250600061098f611805856050612391565b61180f91906123c1565b9050600060506118218361098f612391565b61182b91906123c1565b61183590866123ef565b9050611842600b836123c1565b945061184f85600c612391565b61185a836002612369565b61186491906123ef565b915084836118736031876123ef565b61187e906064612391565b6118889190612369565b6118929190612369565b9a919950975095505050505050565b60008181526002830160205260408120548190806118d0576118c38585611db6565b9250600091506112e89050565b6001925090506112e8565b600082815260028401602052604081208290556113058484611dc2565b600054610100900460ff1661191f5760405162461bcd60e51b81526004016103fe90612252565b6033805460ff19169055565b600082600001828154811061194257611942612172565b9060005260206000200154905092915050565b6000610362826114ec565b6000808061196e85856114c6565b600081815260029690960160205260409095205494959350505050565b60606103626001600160a01b03831660145b606060006119ac83600261240f565b6119b79060026121e1565b67ffffffffffffffff8111156119cf576119cf611ecf565b6040519080825280601f01601f1916602001820160405280156119f9576020820181803683370190505b509050600360fc1b81600081518110611a1457611a14612172565b60200101906001600160f81b031916908160001a905350600f60fb1b81600181518110611a4357611a43612172565b60200101906001600160f81b031916908160001a9053506000611a6784600261240f565b611a729060016121e1565b90505b6001811115611aea576f181899199a1a9b1b9c1cb0b131b232b360811b85600f1660108110611aa657611aa6612172565b1a60f81b828281518110611abc57611abc612172565b60200101906001600160f81b031916908160001a90535060049490941c93611ae381612426565b9050611a75565b508315610a285760405162461bcd60e51b815260206004820181905260248201527f537472696e67733a20686578206c656e67746820696e73756666696369656e7460448201526064016103fe565b6000818152600183016020526040812054611b8057508154600181810184556000848152602080822090930184905584548482528286019093526040902091909155610362565b506000610362565b60008181526001830160205260408120548015611c71576000611bac60018361243d565b8554909150600090611bc09060019061243d565b9050818114611c25576000866000018281548110611be057611be0612172565b9060005260206000200154905080876000018481548110611c0357611c03612172565b6000918252602080832090910192909255918252600188019052604090208390555b8554869080611c3657611c36612450565b600190038181906000526020600020016000905590558560010160008681526020019081526020016000206000905560019350505050610362565b6000915050610362565b5092915050565b611c8b81611666565b6040516001600160a01b038216907fbc7cd75a20ee27fd9adebab32041f755214dbc6bffa90cc0225b39da2e5c2d3b90600090a250565b60606001600160a01b0383163b611d2a5760405162461bcd60e51b815260206004820152602660248201527f416464726573733a2064656c65676174652063616c6c20746f206e6f6e2d636f6044820152651b9d1c9858dd60d21b60648201526084016103fe565b600080846001600160a01b031684604051611d459190612466565b600060405180830381855af49150503d8060008114611d80576040519150601f19603f3d011682016040523d82523d6000602084013e611d85565b606091505b5091509150611dad82826040518060600160405280602781526020016124a360279139611dce565b95945050505050565b6000610a288383611de7565b6000610a288383611b39565b60608315611ddd575081610a28565b610a288383611dff565b60008181526001830160205260408120541515610a28565b815115611e0f5781518083602001fd5b8060405162461bcd60e51b81526004016103fe9190612336565b600060208284031215611e3b57600080fd5b81356001600160e01b031981168114610a2857600080fd5b600060208284031215611e6557600080fd5b5035919050565b80356001600160a01b0381168114611e8357600080fd5b919050565b60008060408385031215611e9b57600080fd5b82359150611eab60208401611e6c565b90509250929050565b600060208284031215611ec657600080fd5b610a2882611e6c565b634e487b7160e01b600052604160045260246000fd5b60008060408385031215611ef857600080fd5b611f0183611e6c565b9150602083013567ffffffffffffffff80821115611f1e57600080fd5b818501915085601f830112611f3257600080fd5b813581811115611f4457611f44611ecf565b604051601f8201601f19908116603f01168101908382118183101715611f6c57611f6c611ecf565b81604052828152886020848701011115611f8557600080fd5b8260208601602083013760006020848301015280955050505050509250929050565b60008060408385031215611fba57600080fd5b50508035926020909101359150565b803560018110611e8357600080fd5b600060208284031215611fea57600080fd5b610a2882611fc9565b600081518084526020808501945080840160005b8381101561202357815187529582019590820190600101612007565b509495945050505050565b604080825283519082018190526000906020906060840190828701845b828110156120705781516001600160a01b03168452928401929084019060010161204b565b505050838103828501526120848186611ff3565b9695505050505050565b6000806000606084860312156120a357600080fd5b6120ac84611fc9565b95602085013595506040909401359392505050565b6020808252602c908201527f46756e6374696f6e206d7573742062652063616c6c6564207468726f7567682060408201526b19195b1959d85d1958d85b1b60a21b606082015260800190565b6020808252602c908201527f46756e6374696f6e206d7573742062652063616c6c6564207468726f7567682060408201526b6163746976652070726f787960a01b606082015260800190565b60006020828403121561216b57600080fd5b5051919050565b634e487b7160e01b600052603260045260246000fd5b634e487b7160e01b600052601260045260246000fd5b6000826121ad576121ad612188565b500690565b634e487b7160e01b600052601160045260246000fd5b6000600182016121da576121da6121b2565b5060010190565b80820180821115610362576103626121b2565b634e487b7160e01b600052602160045260246000fd5b6001600160a01b038416815260606020820181905260009061222e90830185611ff3565b9050826040830152949350505050565b60008261224d5761224d612188565b500490565b6020808252602b908201527f496e697469616c697a61626c653a20636f6e7472616374206973206e6f74206960408201526a6e697469616c697a696e6760a81b606082015260800190565b60005b838110156122b85781810151838201526020016122a0565b50506000910152565b7f416363657373436f6e74726f6c3a206163636f756e74200000000000000000008152600083516122f981601785016020880161229d565b7001034b99036b4b9b9b4b733903937b6329607d1b601791840191820152835161232a81602884016020880161229d565b01602801949350505050565b602081526000825180602084015261235581604085016020870161229d565b601f01601f19169190910160400192915050565b8082018281126000831280158216821582161715612389576123896121b2565b505092915050565b80820260008212600160ff1b841416156123ad576123ad6121b2565b8181058314821517610362576103626121b2565b6000826123d0576123d0612188565b600160ff1b8214600019841416156123ea576123ea6121b2565b500590565b8181036000831280158383131683831282161715611c7b57611c7b6121b2565b8082028115828204841417610362576103626121b2565b600081612435576124356121b2565b506000190190565b81810381811115610362576103626121b2565b634e487b7160e01b600052603160045260246000fd5b6000825161247881846020870161229d565b919091019291505056fe360894a13ba1a3210667c828492db98dca3e2076cc3735a920a3ca505d382bbc416464726573733a206c6f772d6c6576656c2064656c65676174652063616c6c206661696c6564a26469706673582212200b66367f374f4cfc3a8557f8cb5d11205e72651640ed98d99e7cf5b43275dec064736f6c63430008110033",
  "linkReferences": {},
  "deployedLinkReferences": {}
}