{
  "_format": "hh-sol-artifact-1",
  "contractName": "BobaVerseArcade",
  "sourceName": "contracts/BobaVerseArcade.sol",
  "abi": [
    {
      "inputs": [],
      "stateMutability": "nonpayable",
      "type": "constructor"
    },
    {
      "inputs": [
        {
          "internalType": "uint256",
          "name": "array1",
          "type": "uint256"
        },
        {
          "internalType": "uint256",
          "name": "array2",
          "type": "uint256"
        }
      ],
      "name": "ArrayLengthMismatch",
      "type": "error"
    },
    {
      "inputs": [],
      "name": "EmptyArray",
      "type": "error"
    },
    {
      "inputs": [],
      "name": "NoCreditsRemaining",
      "type": "error"
    },
    {
      "anonymous": false,
      "inputs": [
        {
          "indexed": false,
          "internalType": "address",
          "name": "previousAdmin",
          "type": "address"
        },
        {
          "indexed": false,
          "internalType": "address",
          "name": "newAdmin",
          "type": "address"
        }
      ],
      "name": "AdminChanged",
      "type": "event"
    },
    {
      "anonymous": false,
      "inputs": [
        {
          "indexed": true,
          "internalType": "address",
          "name": "beacon",
          "type": "address"
        }
      ],
      "name": "BeaconUpgraded",
      "type": "event"
    },
    {
      "anonymous": false,
      "inputs": [
        {
          "indexed": false,
          "internalType": "uint8",
          "name": "version",
          "type": "uint8"
        }
      ],
      "name": "Initialized",
      "type": "event"
    },
    {
      "anonymous": false,
      "inputs": [
        {
          "indexed": false,
          "internalType": "address",
          "name": "account",
          "type": "address"
        }
      ],
      "name": "Paused",
      "type": "event"
    },
    {
      "anonymous": false,
      "inputs": [
        {
          "indexed": false,
          "internalType": "address",
          "name": "from",
          "type": "address"
        },
        {
          "indexed": false,
          "internalType": "uint256[]",
          "name": "ballPositions",
          "type": "uint256[]"
        },
        {
          "indexed": false,
          "internalType": "uint256",
          "name": "score",
          "type": "uint256"
        }
      ],
      "name": "PlinkoResult",
      "type": "event"
    },
    {
      "anonymous": false,
      "inputs": [
        {
          "indexed": true,
          "internalType": "bytes32",
          "name": "role",
          "type": "bytes32"
        },
        {
          "indexed": true,
          "internalType": "bytes32",
          "name": "previousAdminRole",
          "type": "bytes32"
        },
        {
          "indexed": true,
          "internalType": "bytes32",
          "name": "newAdminRole",
          "type": "bytes32"
        }
      ],
      "name": "RoleAdminChanged",
      "type": "event"
    },
    {
      "anonymous": false,
      "inputs": [
        {
          "indexed": true,
          "internalType": "bytes32",
          "name": "role",
          "type": "bytes32"
        },
        {
          "indexed": true,
          "internalType": "address",
          "name": "account",
          "type": "address"
        },
        {
          "indexed": true,
          "internalType": "address",
          "name": "sender",
          "type": "address"
        }
      ],
      "name": "RoleGranted",
      "type": "event"
    },
    {
      "anonymous": false,
      "inputs": [
        {
          "indexed": true,
          "internalType": "bytes32",
          "name": "role",
          "type": "bytes32"
        },
        {
          "indexed": true,
          "internalType": "address",
          "name": "account",
          "type": "address"
        },
        {
          "indexed": true,
          "internalType": "address",
          "name": "sender",
          "type": "address"
        }
      ],
      "name": "RoleRevoked",
      "type": "event"
    },
    {
      "anonymous": false,
      "inputs": [
        {
          "indexed": true,
          "internalType": "address",
          "name": "from",
          "type": "address"
        },
        {
          "indexed": false,
          "internalType": "address",
          "name": "_address",
          "type": "address"
        }
      ],
      "name": "TuringCreditSet",
      "type": "event"
    },
    {
      "anonymous": false,
      "inputs": [
        {
          "indexed": true,
          "internalType": "address",
          "name": "from",
          "type": "address"
        },
        {
          "indexed": false,
          "internalType": "uint256",
          "name": "fee",
          "type": "uint256"
        }
      ],
      "name": "TuringFeePaid",
      "type": "event"
    },
    {
      "anonymous": false,
      "inputs": [
        {
          "indexed": true,
          "internalType": "address",
          "name": "from",
          "type": "address"
        },
        {
          "indexed": false,
          "internalType": "address",
          "name": "_address",
          "type": "address"
        }
      ],
      "name": "TuringHelperSet",
      "type": "event"
    },
    {
      "anonymous": false,
      "inputs": [
        {
          "indexed": false,
          "internalType": "address",
          "name": "account",
          "type": "address"
        }
      ],
      "name": "Unpaused",
      "type": "event"
    },
    {
      "anonymous": false,
      "inputs": [
        {
          "indexed": true,
          "internalType": "address",
          "name": "implementation",
          "type": "address"
        }
      ],
      "name": "Upgraded",
      "type": "event"
    },
    {
      "inputs": [],
      "name": "DEFAULT_ADMIN_ROLE",
      "outputs": [
        {
          "internalType": "bytes32",
          "name": "",
          "type": "bytes32"
        }
      ],
      "stateMutability": "view",
      "type": "function"
    },
    {
      "inputs": [
        {
          "internalType": "address[]",
          "name": "wallets",
          "type": "address[]"
        },
        {
          "internalType": "uint256[]",
          "name": "_credits",
          "type": "uint256[]"
        }
      ],
      "name": "addCredits",
      "outputs": [],
      "stateMutability": "nonpayable",
      "type": "function"
    },
    {
      "inputs": [
        {
          "internalType": "address",
          "name": "wallet",
          "type": "address"
        }
      ],
      "name": "credits",
      "outputs": [
        {
          "internalType": "uint256",
          "name": "credits",
          "type": "uint256"
        }
      ],
      "stateMutability": "view",
      "type": "function"
    },
    {
      "inputs": [
        {
          "internalType": "enum IBobaVerseArcade.GameType",
          "name": "gameType",
          "type": "uint8"
        }
      ],
      "name": "getLeaderboard",
      "outputs": [
        {
          "internalType": "address[]",
          "name": "addresses",
          "type": "address[]"
        },
        {
          "internalType": "uint256[]",
          "name": "scores",
          "type": "uint256[]"
        }
      ],
      "stateMutability": "view",
      "type": "function"
    },
    {
      "inputs": [
        {
          "internalType": "enum IBobaVerseArcade.GameType",
          "name": "gameType",
          "type": "uint8"
        },
        {
          "internalType": "uint256",
          "name": "year",
          "type": "uint256"
        },
        {
          "internalType": "uint256",
          "name": "month",
          "type": "uint256"
        }
      ],
      "name": "getLeaderboardFor",
      "outputs": [
        {
          "internalType": "address[]",
          "name": "addresses",
          "type": "address[]"
        },
        {
          "internalType": "uint256[]",
          "name": "scores",
          "type": "uint256[]"
        }
      ],
      "stateMutability": "view",
      "type": "function"
    },
    {
      "inputs": [
        {
          "internalType": "bytes32",
          "name": "role",
          "type": "bytes32"
        }
      ],
      "name": "getRoleAdmin",
      "outputs": [
        {
          "internalType": "bytes32",
          "name": "",
          "type": "bytes32"
        }
      ],
      "stateMutability": "view",
      "type": "function"
    },
    {
      "inputs": [
        {
          "internalType": "bytes32",
          "name": "role",
          "type": "bytes32"
        },
        {
          "internalType": "uint256",
          "name": "index",
          "type": "uint256"
        }
      ],
      "name": "getRoleMember",
      "outputs": [
        {
          "internalType": "address",
          "name": "",
          "type": "address"
        }
      ],
      "stateMutability": "view",
      "type": "function"
    },
    {
      "inputs": [
        {
          "internalType": "bytes32",
          "name": "role",
          "type": "bytes32"
        }
      ],
      "name": "getRoleMemberCount",
      "outputs": [
        {
          "internalType": "uint256",
          "name": "",
          "type": "uint256"
        }
      ],
      "stateMutability": "view",
      "type": "function"
    },
    {
      "inputs": [
        {
          "internalType": "bytes32",
          "name": "role",
          "type": "bytes32"
        },
        {
          "internalType": "address",
          "name": "account",
          "type": "address"
        }
      ],
      "name": "grantRole",
      "outputs": [],
      "stateMutability": "nonpayable",
      "type": "function"
    },
    {
      "inputs": [
        {
          "internalType": "bytes32",
          "name": "role",
          "type": "bytes32"
        },
        {
          "internalType": "address",
          "name": "account",
          "type": "address"
        }
      ],
      "name": "hasRole",
      "outputs": [
        {
          "internalType": "bool",
          "name": "",
          "type": "bool"
        }
      ],
      "stateMutability": "view",
      "type": "function"
    },
    {
      "inputs": [],
      "name": "initialize",
      "outputs": [],
      "stateMutability": "nonpayable",
      "type": "function"
    },
    {
      "inputs": [],
      "name": "paused",
      "outputs": [
        {
          "internalType": "bool",
          "name": "",
          "type": "bool"
        }
      ],
      "stateMutability": "view",
      "type": "function"
    },
    {
      "inputs": [],
      "name": "playPlinko",
      "outputs": [],
      "stateMutability": "payable",
      "type": "function"
    },
    {
      "inputs": [],
      "name": "proxiableUUID",
      "outputs": [
        {
          "internalType": "bytes32",
          "name": "",
          "type": "bytes32"
        }
      ],
      "stateMutability": "view",
      "type": "function"
    },
    {
      "inputs": [
        {
          "internalType": "bytes32",
          "name": "role",
          "type": "bytes32"
        },
        {
          "internalType": "address",
          "name": "account",
          "type": "address"
        }
      ],
      "name": "renounceRole",
      "outputs": [],
      "stateMutability": "nonpayable",
      "type": "function"
    },
    {
      "inputs": [
        {
          "internalType": "bytes32",
          "name": "role",
          "type": "bytes32"
        },
        {
          "internalType": "address",
          "name": "account",
          "type": "address"
        }
      ],
      "name": "revokeRole",
      "outputs": [],
      "stateMutability": "nonpayable",
      "type": "function"
    },
    {
      "inputs": [
        {
          "internalType": "bytes4",
          "name": "interfaceId",
          "type": "bytes4"
        }
      ],
      "name": "supportsInterface",
      "outputs": [
        {
          "internalType": "bool",
          "name": "",
          "type": "bool"
        }
      ],
      "stateMutability": "view",
      "type": "function"
    },
    {
      "inputs": [
        {
          "internalType": "address",
          "name": "newImplementation",
          "type": "address"
        }
      ],
      "name": "upgradeTo",
      "outputs": [],
      "stateMutability": "nonpayable",
      "type": "function"
    },
    {
      "inputs": [
        {
          "internalType": "address",
          "name": "newImplementation",
          "type": "address"
        },
        {
          "internalType": "bytes",
          "name": "data",
          "type": "bytes"
        }
      ],
      "name": "upgradeToAndCall",
      "outputs": [],
      "stateMutability": "payable",
      "type": "function"
    }
  ],
  "bytecode": "0x60a0604052306080523480156200001557600080fd5b506200002062000026565b620000e7565b600054610100900460ff1615620000935760405162461bcd60e51b815260206004820152602760248201527f496e697469616c697a61626c653a20636f6e747261637420697320696e697469604482015266616c697a696e6760c81b606482015260840160405180910390fd5b60005460ff90811614620000e5576000805460ff191660ff9081179091556040519081527f7f26b83ff96e1f2b6a682f133852f6798a09c465da95921460cefb38474024989060200160405180910390a15b565b6080516127ec6200011f60003960008181610476015281816104b601528181610668015281816106a8015261073701526127ec6000f3fe6080604052600436106101145760003560e01c80635c975abb116100a0578063a217fddf11610064578063a217fddf146102f1578063b71881c014610306578063ca15c87314610326578063d547741f14610346578063fe5ff4681461036657600080fd5b80635c975abb1461023e5780638129fc1c146102565780639010d07c1461026b57806391d14854146102a35780639f1e7a2a146102c357600080fd5b80633659cfe6116100e75780633659cfe6146101ce578063396636c1146101ee5780634f1ef2861461020e57806352d1902d1461022157806355c8b9571461023657600080fd5b806301ffc9a714610119578063248a9ca31461014e5780632f2ff15d1461018c57806336568abe146101ae575b600080fd5b34801561012557600080fd5b5061013961013436600461206f565b610394565b60405190151581526020015b60405180910390f35b34801561015a57600080fd5b5061017e610169366004612099565b60009081526097602052604090206001015490565b604051908152602001610145565b34801561019857600080fd5b506101ac6101a73660046120ce565b6103bf565b005b3480156101ba57600080fd5b506101ac6101c93660046120ce565b6103e9565b3480156101da57600080fd5b506101ac6101e93660046120fa565b61046c565b3480156101fa57600080fd5b506101ac61020936600461215a565b61054b565b6101ac61021c3660046121dc565b61065e565b34801561022d57600080fd5b5061017e61072a565b6101ac6107dd565b34801561024a57600080fd5b5060335460ff16610139565b34801561026257600080fd5b506101ac610a3d565b34801561027757600080fd5b5061028b61028636600461229e565b610b75565b6040516001600160a01b039091168152602001610145565b3480156102af57600080fd5b506101396102be3660046120ce565b610b94565b3480156102cf57600080fd5b506102e36102de3660046122cf565b610bbf565b604051610145929190612325565b3480156102fd57600080fd5b5061017e600081565b34801561031257600080fd5b506102e361032136600461237b565b610d75565b34801561033257600080fd5b5061017e610341366004612099565b610f12565b34801561035257600080fd5b506101ac6103613660046120ce565b610f29565b34801561037257600080fd5b5061017e6103813660046120fa565b6101f26020526000908152604090205481565b60006001600160e01b03198216635a05180f60e01b14806103b957506103b982610f4e565b92915050565b6000828152609760205260409020600101546103da81610f83565b6103e48383610f8d565b505050565b6001600160a01b038116331461045e5760405162461bcd60e51b815260206004820152602f60248201527f416363657373436f6e74726f6c3a2063616e206f6e6c792072656e6f756e636560448201526e103937b632b9903337b91039b2b63360891b60648201526084015b60405180910390fd5b6104688282610faf565b5050565b6001600160a01b037f00000000000000000000000000000000000000000000000000000000000000001630036104b45760405162461bcd60e51b8152600401610455906123ae565b7f00000000000000000000000000000000000000000000000000000000000000006001600160a01b03166104fd600080516020612770833981519152546001600160a01b031690565b6001600160a01b0316146105235760405162461bcd60e51b8152600401610455906123fa565b61052c81610fd1565b6040805160008082526020820190925261054891839190610fdb565b50565b6105747f364d3d7565c7a8300c96fd53e065d19b65848d7b23b3191adcd55621c744223c610f83565b60008390036105965760405163521299a960e01b815260040160405180910390fd5b8281146105c057604051631f4bb7c160e31b81526004810184905260248101829052604401610455565b60005b83811015610657578282828181106105dd576105dd612446565b905060200201356101f260008787858181106105fb576105fb612446565b905060200201602081019061061091906120fa565b6001600160a01b03166001600160a01b03168152602001908152602001600020600082825461063f9190612472565b9091555081905061064f81612485565b9150506105c3565b5050505050565b6001600160a01b037f00000000000000000000000000000000000000000000000000000000000000001630036106a65760405162461bcd60e51b8152600401610455906123ae565b7f00000000000000000000000000000000000000000000000000000000000000006001600160a01b03166106ef600080516020612770833981519152546001600160a01b031690565b6001600160a01b0316146107155760405162461bcd60e51b8152600401610455906123fa565b61071e82610fd1565b61046882826001610fdb565b6000306001600160a01b037f000000000000000000000000000000000000000000000000000000000000000016146107ca5760405162461bcd60e51b815260206004820152603860248201527f555550535570677261646561626c653a206d757374206e6f742062652063616c60448201527f6c6564207468726f7567682064656c656761746563616c6c00000000000000006064820152608401610455565b5060008051602061277083398151915290565b6107e5611146565b6107ed61118c565b6107f56111e7565b6107fd61123f565b61015c546040805163604a6fa960e01b815290516000926001600160a01b03169163604a6fa9916004808301926020929190829003018187875af1158015610849573d6000803e3d6000fd5b505050506040513d601f19601f8201168201806040525081019061086d919061249e565b9050600061087f826103e860156113a4565b6040805160148082526102a0820190925291925060009190602082016102808036833701905050905060005b60148110156109095760648382815181106108c8576108c8612446565b60200260200101516108da91906124cd565b8282815181106108ec576108ec612446565b60209081029190910101528061090181612485565b9150506108ab565b50600060c88360148151811061092157610921612446565b602002602001015161093391906124cd565b61093e906001612472565b9050600061094b4261144b565b905060006109584261146b565b60008381527fb90953adcbf35a931ac053a7d0fe43fdd42a03d188a6bab41f6e6ed74a0821d26020908152604080832084845290915281209192509061099e9033611485565b915050838110156109ee5760008381527fb90953adcbf35a931ac053a7d0fe43fdd42a03d188a6bab41f6e6ed74a0821d26020908152604080832085845290915290206109ec9033866114ac565b505b7f4a18ce930e868f657f5661e99757ae4f8baff782138c767a6f4595d779980dd6338686604051610a21939291906124f7565b60405180910390a150505050505050610a3b600161012955565b565b600054610100900460ff1615808015610a5d5750600054600160ff909116105b80610a775750303b158015610a77575060005460ff166001145b610ada5760405162461bcd60e51b815260206004820152602e60248201527f496e697469616c697a61626c653a20636f6e747261637420697320616c72656160448201526d191e481a5b9a5d1a585b1a5e995960921b6064820152608401610455565b6000805460ff191660011790558015610afd576000805461ff0019166101001790555b610b056114ca565b610b0d6114f9565b610b15611605565b610b2d610b2061162c565b610b2861166b565b6116b1565b8015610548576000805461ff0019169055604051600181527f7f26b83ff96e1f2b6a682f133852f6798a09c465da95921460cefb38474024989060200160405180910390a150565b600082815260c960205260408120610b8d9083611708565b9392505050565b60009182526097602090815260408084206001600160a01b0393909316845291905290205460ff1690565b6060806000610bcd4261144b565b90506000610bda4261146b565b90506000610c2c6101f182888015610bf457610bf46124e1565b8015610c0257610c026124e1565b81526020808201929092526040908101600090812087825283528181208682529092529020611714565b90508067ffffffffffffffff811115610c4757610c476121c6565b604051908082528060200260200182016040528015610c70578160200160208202803683370190505b5094508067ffffffffffffffff811115610c8c57610c8c6121c6565b604051908082528060200260200182016040528015610cb5578160200160208202803683370190505b50935060005b81811115610d6c57610d14816101f160008a8015610cdb57610cdb6124e1565b8015610ce957610ce96124e1565b815260208082019290925260409081016000908120898252835281812088825290925290209061171f565b878381518110610d2657610d26612446565b60200260200101878481518110610d3f57610d3f612446565b60209081029190910101919091526001600160a01b03909116905280610d6481612485565b915050610cbb565b50505050915091565b6060806000610dc86101f182888015610d9057610d906124e1565b8015610d9e57610d9e6124e1565b81526020808201929092526040908101600090812089825283528181208882529092529020611714565b90508067ffffffffffffffff811115610de357610de36121c6565b604051908082528060200260200182016040528015610e0c578160200160208202803683370190505b5092508067ffffffffffffffff811115610e2857610e286121c6565b604051908082528060200260200182016040528015610e51578160200160208202803683370190505b50915060005b81811015610f0857610eb0816101f160008a8015610e7757610e776124e1565b8015610e8557610e856124e1565b8152602080820192909252604090810160009081208b825283528181208a825290925290209061171f565b858381518110610ec257610ec2612446565b60200260200101858481518110610edb57610edb612446565b60209081029190910101919091526001600160a01b03909116905280610f0081612485565b915050610e57565b5050935093915050565b600081815260c9602052604081206103b99061172e565b600082815260976020526040902060010154610f4481610f83565b6103e48383610faf565b60006001600160e01b03198216637965db0b60e01b14806103b957506301ffc9a760e01b6001600160e01b03198316146103b9565b6105488133611738565b610f978282611791565b600082815260c9602052604090206103e49082611817565b610fb9828261182c565b600082815260c9602052604090206103e49082611893565b6105486000610f83565b7f4910fdfa16fed3260ed0e7147f7cc6da11a60208b5b9406d12a635614ffd91435460ff161561100e576103e4836118a8565b826001600160a01b03166352d1902d6040518163ffffffff1660e01b8152600401602060405180830381865afa925050508015611068575060408051601f3d908101601f191682019092526110659181019061249e565b60015b6110cb5760405162461bcd60e51b815260206004820152602e60248201527f45524331393637557067726164653a206e657720696d706c656d656e7461746960448201526d6f6e206973206e6f74205555505360901b6064820152608401610455565b600080516020612770833981519152811461113a5760405162461bcd60e51b815260206004820152602960248201527f45524331393637557067726164653a20756e737570706f727465642070726f786044820152681a58589b195555525160ba1b6064820152608401610455565b506103e4838383611944565b60335460ff1615610a3b5760405162461bcd60e51b815260206004820152601060248201526f14185d5cd8589b194e881c185d5cd95960821b6044820152606401610455565b600261012954036111df5760405162461bcd60e51b815260206004820152601f60248201527f5265656e7472616e637947756172643a207265656e7472616e742063616c6c006044820152606401610455565b600261012955565b3360009081526101f2602052604081205490036112175760405163018f738d60e21b815260040160405180910390fd5b3360009081526101f26020526040812080546001929061123890849061252b565b9091555050565b61015b5460408051637126fe6f60e11b815290516000926001600160a01b03169163e24dfcde9160048083019260209291908290030181865afa15801561128a573d6000803e3d6000fd5b505050506040513d601f19601f820116820180604052508101906112ae919061249e565b90508034146112ff5760405162461bcd60e51b815260206004820152601760248201527f496e73756666696369656e7420547572696e67204665650000000000000000006044820152606401610455565b61015b5461015c54604051631fb1244f60e31b8152600481018490526001600160a01b03918216602482015291169063fd8922789083906044016000604051808303818588803b15801561135257600080fd5b505af1158015611366573d6000803e3d6000fd5b50506040518481523393507f9d274ae0294d2443bf2deae07adf50a459e712b401fbc806742b3f45ef7cc4da9250602001905060405180910390a250565b60608167ffffffffffffffff8111156113bf576113bf6121c6565b6040519080825280602002602001820160405280156113e8578160200160208202803683370190505b5090508360005b8381101561144257600061140386846124cd565b905061140f868461253e565b92508084838151811061142457611424612446565b6020908102919091010152508061143a81612485565b9150506113ef565b50509392505050565b600061146261145d620151808461253e565b61196f565b50909392505050565b600061147d61145d620151808461253e565b509392505050565b600080808061149d866001600160a01b038716611ae3565b909450925050505b9250929050565b60006114c2846001600160a01b03851684611b1d565b949350505050565b600054610100900460ff166114f15760405162461bcd60e51b815260040161045590612552565b610a3b611b3a565b600054610100900460ff166115205760405162461bcd60e51b815260040161045590612552565b611528611605565b611533600033610f8d565b61155d7fa49807205ce4d355092ef5a8a18f56e8913cf4a201fbe287825b095693c2177533610f8d565b6115877f364d3d7565c7a8300c96fd53e065d19b65848d7b23b3191adcd55621c744223c33610f8d565b6115b17f9f2df0fed2c77648de5860a4cc508cd0818c85b8b8a1ab4ceeef8d981c8956a633610f8d565b6115db7ff18b77e1ef402111bacb54bd5e03494cbdba92fbd1bd3bbcc1ce77e69b42ea6c33610f8d565b610a3b7f52ba824bfabc2bcfcdf7f0edbb486ebb05e1836c90e78047efeb949990f72e5f33610f8d565b600054610100900460ff16610a3b5760405162461bcd60e51b815260040161045590612552565b60004661012003611650575073c8849f32138de93f6097199c5721a9efd91cee0190565b4661dbe00361166557506020602160991b0190565b50600090565b6000466101200361168f5750735c1b6dba534fb4e1828278c9d9d6fa1b15a67db890565b4661dbe003611665575073a0830985871c69c5f4788a6f95b3a238e2bb8afc90565b600054610100900460ff166116d85760405162461bcd60e51b815260040161045590612552565b61015b80546001600160a01b039384166001600160a01b03199182161790915561015c8054929093169116179055565b6000610b8d8383611b6d565b60006103b982611b97565b600080808061149d8686611ba2565b60006103b9825490565b6117428282610b94565b6104685761174f81611bcd565b61175a836020611bdf565b60405160200161176b9291906125c1565b60408051601f198184030181529082905262461bcd60e51b825261045591600401612636565b61179b8282610b94565b6104685760008281526097602090815260408083206001600160a01b03851684529091529020805460ff191660011790556117d33390565b6001600160a01b0316816001600160a01b0316837f2f8788117e7eff1d82e926ec794901d17c78024a50270940304540a733656f0d60405160405180910390a45050565b6000610b8d836001600160a01b038416611d7b565b6118368282610b94565b156104685760008281526097602090815260408083206001600160a01b0385168085529252808320805460ff1916905551339285917ff6391f5c32d9c69d2a47ea670b442974b53935d1edc7fd64eb21e047a839171b9190a45050565b6000610b8d836001600160a01b038416611dca565b6001600160a01b0381163b6119155760405162461bcd60e51b815260206004820152602d60248201527f455243313936373a206e657720696d706c656d656e746174696f6e206973206e60448201526c1bdd08184818dbdb9d1c9858dd609a1b6064820152608401610455565b60008051602061277083398151915280546001600160a01b0319166001600160a01b0392909216919091179055565b61194d83611ec4565b60008251118061195a5750805b156103e4576119698383611f04565b50505050565b60008080838162253d8c6119868362010bd9612669565b6119909190612669565b9050600062023ab16119a3836004612691565b6119ad91906126c1565b905060046119be8262023ab1612691565b6119c9906003612669565b6119d391906126c1565b6119dd90836126ef565b9150600062164b096119f0846001612669565b6119fc90610fa0612691565b611a0691906126c1565b90506004611a16826105b5612691565b611a2091906126c1565b611a2a90846126ef565b611a3590601f612669565b9250600061098f611a47856050612691565b611a5191906126c1565b905060006050611a638361098f612691565b611a6d91906126c1565b611a7790866126ef565b9050611a84600b836126c1565b9450611a9185600c612691565b611a9c836002612669565b611aa691906126ef565b91508483611ab56031876126ef565b611ac0906064612691565b611aca9190612669565b611ad49190612669565b9a919950975095505050505050565b6000818152600283016020526040812054819080611b1257611b058585611f29565b9250600091506114a59050565b6001925090506114a5565b600082815260028401602052604081208290556114c28484611f35565b600054610100900460ff16611b615760405162461bcd60e51b815260040161045590612552565b6033805460ff19169055565b6000826000018281548110611b8457611b84612446565b9060005260206000200154905092915050565b60006103b98261172e565b60008080611bb08585611708565b600081815260029690960160205260409095205494959350505050565b60606103b96001600160a01b03831660145b60606000611bee83600261270f565b611bf9906002612472565b67ffffffffffffffff811115611c1157611c116121c6565b6040519080825280601f01601f191660200182016040528015611c3b576020820181803683370190505b509050600360fc1b81600081518110611c5657611c56612446565b60200101906001600160f81b031916908160001a905350600f60fb1b81600181518110611c8557611c85612446565b60200101906001600160f81b031916908160001a9053506000611ca984600261270f565b611cb4906001612472565b90505b6001811115611d2c576f181899199a1a9b1b9c1cb0b131b232b360811b85600f1660108110611ce857611ce8612446565b1a60f81b828281518110611cfe57611cfe612446565b60200101906001600160f81b031916908160001a90535060049490941c93611d2581612726565b9050611cb7565b508315610b8d5760405162461bcd60e51b815260206004820181905260248201527f537472696e67733a20686578206c656e67746820696e73756666696369656e746044820152606401610455565b6000818152600183016020526040812054611dc2575081546001818101845560008481526020808220909301849055845484825282860190935260409020919091556103b9565b5060006103b9565b60008181526001830160205260408120548015611eb3576000611dee60018361252b565b8554909150600090611e029060019061252b565b9050818114611e67576000866000018281548110611e2257611e22612446565b9060005260206000200154905080876000018481548110611e4557611e45612446565b6000918252602080832090910192909255918252600188019052604090208390555b8554869080611e7857611e7861273d565b6001900381819060005260206000200160009055905585600101600086815260200190815260200160002060009055600193505050506103b9565b60009150506103b9565b5092915050565b611ecd816118a8565b6040516001600160a01b038216907fbc7cd75a20ee27fd9adebab32041f755214dbc6bffa90cc0225b39da2e5c2d3b90600090a250565b6060610b8d838360405180606001604052806027815260200161279060279139611f41565b6000610b8d8383611fb9565b6000610b8d8383611d7b565b6060600080856001600160a01b031685604051611f5e9190612753565b600060405180830381855af49150503d8060008114611f99576040519150601f19603f3d011682016040523d82523d6000602084013e611f9e565b606091505b5091509150611faf86838387611fd1565b9695505050505050565b60008181526001830160205260408120541515610b8d565b60608315612040578251600003612039576001600160a01b0385163b6120395760405162461bcd60e51b815260206004820152601d60248201527f416464726573733a2063616c6c20746f206e6f6e2d636f6e74726163740000006044820152606401610455565b50816114c2565b6114c283838151156120555781518083602001fd5b8060405162461bcd60e51b81526004016104559190612636565b60006020828403121561208157600080fd5b81356001600160e01b031981168114610b8d57600080fd5b6000602082840312156120ab57600080fd5b5035919050565b80356001600160a01b03811681146120c957600080fd5b919050565b600080604083850312156120e157600080fd5b823591506120f1602084016120b2565b90509250929050565b60006020828403121561210c57600080fd5b610b8d826120b2565b60008083601f84011261212757600080fd5b50813567ffffffffffffffff81111561213f57600080fd5b6020830191508360208260051b85010111156114a557600080fd5b6000806000806040858703121561217057600080fd5b843567ffffffffffffffff8082111561218857600080fd5b61219488838901612115565b909650945060208701359150808211156121ad57600080fd5b506121ba87828801612115565b95989497509550505050565b634e487b7160e01b600052604160045260246000fd5b600080604083850312156121ef57600080fd5b6121f8836120b2565b9150602083013567ffffffffffffffff8082111561221557600080fd5b818501915085601f83011261222957600080fd5b81358181111561223b5761223b6121c6565b604051601f8201601f19908116603f01168101908382118183101715612263576122636121c6565b8160405282815288602084870101111561227c57600080fd5b8260208601602083013760006020848301015280955050505050509250929050565b600080604083850312156122b157600080fd5b50508035926020909101359150565b8035600181106120c957600080fd5b6000602082840312156122e157600080fd5b610b8d826122c0565b600081518084526020808501945080840160005b8381101561231a578151875295820195908201906001016122fe565b509495945050505050565b604080825283519082018190526000906020906060840190828701845b828110156123675781516001600160a01b031684529284019290840190600101612342565b50505083810382850152611faf81866122ea565b60008060006060848603121561239057600080fd5b612399846122c0565b95602085013595506040909401359392505050565b6020808252602c908201527f46756e6374696f6e206d7573742062652063616c6c6564207468726f7567682060408201526b19195b1959d85d1958d85b1b60a21b606082015260800190565b6020808252602c908201527f46756e6374696f6e206d7573742062652063616c6c6564207468726f7567682060408201526b6163746976652070726f787960a01b606082015260800190565b634e487b7160e01b600052603260045260246000fd5b634e487b7160e01b600052601160045260246000fd5b808201808211156103b9576103b961245c565b6000600182016124975761249761245c565b5060010190565b6000602082840312156124b057600080fd5b5051919050565b634e487b7160e01b600052601260045260246000fd5b6000826124dc576124dc6124b7565b500690565b634e487b7160e01b600052602160045260246000fd5b6001600160a01b038416815260606020820181905260009061251b908301856122ea565b9050826040830152949350505050565b818103818111156103b9576103b961245c565b60008261254d5761254d6124b7565b500490565b6020808252602b908201527f496e697469616c697a61626c653a20636f6e7472616374206973206e6f74206960408201526a6e697469616c697a696e6760a81b606082015260800190565b60005b838110156125b85781810151838201526020016125a0565b50506000910152565b7f416363657373436f6e74726f6c3a206163636f756e74200000000000000000008152600083516125f981601785016020880161259d565b7001034b99036b4b9b9b4b733903937b6329607d1b601791840191820152835161262a81602884016020880161259d565b01602801949350505050565b602081526000825180602084015261265581604085016020870161259d565b601f01601f19169190910160400192915050565b80820182811260008312801582168215821617156126895761268961245c565b505092915050565b80820260008212600160ff1b841416156126ad576126ad61245c565b81810583148215176103b9576103b961245c565b6000826126d0576126d06124b7565b600160ff1b8214600019841416156126ea576126ea61245c565b500590565b8181036000831280158383131683831282161715611ebd57611ebd61245c565b80820281158282048414176103b9576103b961245c565b6000816127355761273561245c565b506000190190565b634e487b7160e01b600052603160045260246000fd5b6000825161276581846020870161259d565b919091019291505056fe360894a13ba1a3210667c828492db98dca3e2076cc3735a920a3ca505d382bbc416464726573733a206c6f772d6c6576656c2064656c65676174652063616c6c206661696c6564a264697066735822122019169520c803f681d1c091d120d971f2ff43d530561b702bbda90d01472994d864736f6c63430008140033",
  "linkReferences": {},
  "deployedLinkReferences": {}
}