{
  "_format": "hh-sol-artifact-1",
  "contractName": "BobaVerseArcade",
  "sourceName": "contracts/BobaVerseArcade.sol",
  "abi": [
    {
      "inputs": [],
      "stateMutability": "nonpayable",
      "type": "constructor"
    },
    {
      "anonymous": false,
      "inputs": [
        {
          "indexed": false,
          "internalType": "address",
          "name": "previousAdmin",
          "type": "address"
        },
        {
          "indexed": false,
          "internalType": "address",
          "name": "newAdmin",
          "type": "address"
        }
      ],
      "name": "AdminChanged",
      "type": "event"
    },
    {
      "anonymous": false,
      "inputs": [
        {
          "indexed": true,
          "internalType": "address",
          "name": "beacon",
          "type": "address"
        }
      ],
      "name": "BeaconUpgraded",
      "type": "event"
    },
    {
      "anonymous": false,
      "inputs": [
        {
          "indexed": false,
          "internalType": "uint8",
          "name": "version",
          "type": "uint8"
        }
      ],
      "name": "Initialized",
      "type": "event"
    },
    {
      "anonymous": false,
      "inputs": [
        {
          "indexed": false,
          "internalType": "address",
          "name": "account",
          "type": "address"
        }
      ],
      "name": "Paused",
      "type": "event"
    },
    {
      "anonymous": false,
      "inputs": [
        {
          "indexed": false,
          "internalType": "address",
          "name": "from",
          "type": "address"
        },
        {
          "indexed": false,
          "internalType": "uint256[]",
          "name": "ballPositions",
          "type": "uint256[]"
        },
        {
          "indexed": false,
          "internalType": "uint256",
          "name": "score",
          "type": "uint256"
        }
      ],
      "name": "PlinkoResult",
      "type": "event"
    },
    {
      "anonymous": false,
      "inputs": [
        {
          "indexed": true,
          "internalType": "bytes32",
          "name": "role",
          "type": "bytes32"
        },
        {
          "indexed": true,
          "internalType": "bytes32",
          "name": "previousAdminRole",
          "type": "bytes32"
        },
        {
          "indexed": true,
          "internalType": "bytes32",
          "name": "newAdminRole",
          "type": "bytes32"
        }
      ],
      "name": "RoleAdminChanged",
      "type": "event"
    },
    {
      "anonymous": false,
      "inputs": [
        {
          "indexed": true,
          "internalType": "bytes32",
          "name": "role",
          "type": "bytes32"
        },
        {
          "indexed": true,
          "internalType": "address",
          "name": "account",
          "type": "address"
        },
        {
          "indexed": true,
          "internalType": "address",
          "name": "sender",
          "type": "address"
        }
      ],
      "name": "RoleGranted",
      "type": "event"
    },
    {
      "anonymous": false,
      "inputs": [
        {
          "indexed": true,
          "internalType": "bytes32",
          "name": "role",
          "type": "bytes32"
        },
        {
          "indexed": true,
          "internalType": "address",
          "name": "account",
          "type": "address"
        },
        {
          "indexed": true,
          "internalType": "address",
          "name": "sender",
          "type": "address"
        }
      ],
      "name": "RoleRevoked",
      "type": "event"
    },
    {
      "anonymous": false,
      "inputs": [
        {
          "indexed": true,
          "internalType": "address",
          "name": "from",
          "type": "address"
        },
        {
          "indexed": false,
          "internalType": "address",
          "name": "_address",
          "type": "address"
        }
      ],
      "name": "TuringCreditSet",
      "type": "event"
    },
    {
      "anonymous": false,
      "inputs": [
        {
          "indexed": true,
          "internalType": "address",
          "name": "from",
          "type": "address"
        },
        {
          "indexed": false,
          "internalType": "uint256",
          "name": "fee",
          "type": "uint256"
        }
      ],
      "name": "TuringFeePaid",
      "type": "event"
    },
    {
      "anonymous": false,
      "inputs": [
        {
          "indexed": true,
          "internalType": "address",
          "name": "from",
          "type": "address"
        },
        {
          "indexed": false,
          "internalType": "address",
          "name": "_address",
          "type": "address"
        }
      ],
      "name": "TuringHelperSet",
      "type": "event"
    },
    {
      "anonymous": false,
      "inputs": [
        {
          "indexed": false,
          "internalType": "address",
          "name": "account",
          "type": "address"
        }
      ],
      "name": "Unpaused",
      "type": "event"
    },
    {
      "anonymous": false,
      "inputs": [
        {
          "indexed": true,
          "internalType": "address",
          "name": "implementation",
          "type": "address"
        }
      ],
      "name": "Upgraded",
      "type": "event"
    },
    {
      "inputs": [],
      "name": "DEFAULT_ADMIN_ROLE",
      "outputs": [
        {
          "internalType": "bytes32",
          "name": "",
          "type": "bytes32"
        }
      ],
      "stateMutability": "view",
      "type": "function"
    },
    {
      "inputs": [
        {
          "internalType": "enum IBobaVerseArcade.GameType",
          "name": "gameType",
          "type": "uint8"
        }
      ],
      "name": "getLeaderboard",
      "outputs": [
        {
          "internalType": "address[]",
          "name": "addresses",
          "type": "address[]"
        },
        {
          "internalType": "uint256[]",
          "name": "scores",
          "type": "uint256[]"
        }
      ],
      "stateMutability": "view",
      "type": "function"
    },
    {
      "inputs": [
        {
          "internalType": "enum IBobaVerseArcade.GameType",
          "name": "gameType",
          "type": "uint8"
        },
        {
          "internalType": "uint256",
          "name": "year",
          "type": "uint256"
        },
        {
          "internalType": "uint256",
          "name": "month",
          "type": "uint256"
        }
      ],
      "name": "getLeaderboardFor",
      "outputs": [
        {
          "internalType": "address[]",
          "name": "addresses",
          "type": "address[]"
        },
        {
          "internalType": "uint256[]",
          "name": "scores",
          "type": "uint256[]"
        }
      ],
      "stateMutability": "view",
      "type": "function"
    },
    {
      "inputs": [
        {
          "internalType": "bytes32",
          "name": "role",
          "type": "bytes32"
        }
      ],
      "name": "getRoleAdmin",
      "outputs": [
        {
          "internalType": "bytes32",
          "name": "",
          "type": "bytes32"
        }
      ],
      "stateMutability": "view",
      "type": "function"
    },
    {
      "inputs": [
        {
          "internalType": "bytes32",
          "name": "role",
          "type": "bytes32"
        },
        {
          "internalType": "uint256",
          "name": "index",
          "type": "uint256"
        }
      ],
      "name": "getRoleMember",
      "outputs": [
        {
          "internalType": "address",
          "name": "",
          "type": "address"
        }
      ],
      "stateMutability": "view",
      "type": "function"
    },
    {
      "inputs": [
        {
          "internalType": "bytes32",
          "name": "role",
          "type": "bytes32"
        }
      ],
      "name": "getRoleMemberCount",
      "outputs": [
        {
          "internalType": "uint256",
          "name": "",
          "type": "uint256"
        }
      ],
      "stateMutability": "view",
      "type": "function"
    },
    {
      "inputs": [
        {
          "internalType": "bytes32",
          "name": "role",
          "type": "bytes32"
        },
        {
          "internalType": "address",
          "name": "account",
          "type": "address"
        }
      ],
      "name": "grantRole",
      "outputs": [],
      "stateMutability": "nonpayable",
      "type": "function"
    },
    {
      "inputs": [
        {
          "internalType": "bytes32",
          "name": "role",
          "type": "bytes32"
        },
        {
          "internalType": "address",
          "name": "account",
          "type": "address"
        }
      ],
      "name": "hasRole",
      "outputs": [
        {
          "internalType": "bool",
          "name": "",
          "type": "bool"
        }
      ],
      "stateMutability": "view",
      "type": "function"
    },
    {
      "inputs": [],
      "name": "initialize",
      "outputs": [],
      "stateMutability": "nonpayable",
      "type": "function"
    },
    {
      "inputs": [],
      "name": "paused",
      "outputs": [
        {
          "internalType": "bool",
          "name": "",
          "type": "bool"
        }
      ],
      "stateMutability": "view",
      "type": "function"
    },
    {
      "inputs": [],
      "name": "playPlinko",
      "outputs": [],
      "stateMutability": "payable",
      "type": "function"
    },
    {
      "inputs": [],
      "name": "proxiableUUID",
      "outputs": [
        {
          "internalType": "bytes32",
          "name": "",
          "type": "bytes32"
        }
      ],
      "stateMutability": "view",
      "type": "function"
    },
    {
      "inputs": [
        {
          "internalType": "bytes32",
          "name": "role",
          "type": "bytes32"
        },
        {
          "internalType": "address",
          "name": "account",
          "type": "address"
        }
      ],
      "name": "renounceRole",
      "outputs": [],
      "stateMutability": "nonpayable",
      "type": "function"
    },
    {
      "inputs": [
        {
          "internalType": "bytes32",
          "name": "role",
          "type": "bytes32"
        },
        {
          "internalType": "address",
          "name": "account",
          "type": "address"
        }
      ],
      "name": "revokeRole",
      "outputs": [],
      "stateMutability": "nonpayable",
      "type": "function"
    },
    {
      "inputs": [
        {
          "internalType": "bytes4",
          "name": "interfaceId",
          "type": "bytes4"
        }
      ],
      "name": "supportsInterface",
      "outputs": [
        {
          "internalType": "bool",
          "name": "",
          "type": "bool"
        }
      ],
      "stateMutability": "view",
      "type": "function"
    },
    {
      "inputs": [
        {
          "internalType": "address",
          "name": "newImplementation",
          "type": "address"
        }
      ],
      "name": "upgradeTo",
      "outputs": [],
      "stateMutability": "nonpayable",
      "type": "function"
    },
    {
      "inputs": [
        {
          "internalType": "address",
          "name": "newImplementation",
          "type": "address"
        },
        {
          "internalType": "bytes",
          "name": "data",
          "type": "bytes"
        }
      ],
      "name": "upgradeToAndCall",
      "outputs": [],
      "stateMutability": "payable",
      "type": "function"
    }
  ],
  "bytecode": "0x60a0604052306080523480156200001557600080fd5b506200002062000026565b620000e8565b600054610100900460ff1615620000935760405162461bcd60e51b815260206004820152602760248201527f496e697469616c697a61626c653a20636f6e747261637420697320696e697469604482015266616c697a696e6760c81b606482015260840160405180910390fd5b60005460ff9081161015620000e6576000805460ff191660ff9081179091556040519081527f7f26b83ff96e1f2b6a682f133852f6798a09c465da95921460cefb38474024989060200160405180910390a15b565b6080516125c5620001206000396000818161041201528181610452015281816104f10152818161053101526105c001526125c56000f3fe6080604052600436106100fe5760003560e01c80635c975abb116100955780639f1e7a2a116100645780639f1e7a2a1461028d578063a217fddf146102bb578063b71881c0146102d0578063ca15c873146102f0578063d547741f1461031057600080fd5b80635c975abb146102085780638129fc1c146102205780639010d07c1461023557806391d148541461026d57600080fd5b80633659cfe6116100d15780633659cfe6146101b85780634f1ef286146101d857806352d1902d146101eb57806355c8b9571461020057600080fd5b806301ffc9a714610103578063248a9ca3146101385780632f2ff15d1461017657806336568abe14610198575b600080fd5b34801561010f57600080fd5b5061012361011e366004611eef565b610330565b60405190151581526020015b60405180910390f35b34801561014457600080fd5b50610168610153366004611f19565b60009081526097602052604090206001015490565b60405190815260200161012f565b34801561018257600080fd5b50610196610191366004611f4e565b61035b565b005b3480156101a457600080fd5b506101966101b3366004611f4e565b610385565b3480156101c457600080fd5b506101966101d3366004611f7a565b610408565b6101966101e6366004611fab565b6104e7565b3480156101f757600080fd5b506101686105b3565b610196610666565b34801561021457600080fd5b5060335460ff16610123565b34801561022c57600080fd5b506101966108be565b34801561024157600080fd5b5061025561025036600461206d565b6109f6565b6040516001600160a01b03909116815260200161012f565b34801561027957600080fd5b50610123610288366004611f4e565b610a15565b34801561029957600080fd5b506102ad6102a836600461209e565b610a40565b60405161012f9291906120f4565b3480156102c757600080fd5b50610168600081565b3480156102dc57600080fd5b506102ad6102eb366004612154565b610bf6565b3480156102fc57600080fd5b5061016861030b366004611f19565b610d93565b34801561031c57600080fd5b5061019661032b366004611f4e565b610daa565b60006001600160e01b03198216635a05180f60e01b1480610355575061035582610dcf565b92915050565b60008281526097602052604090206001015461037681610e04565b6103808383610e0e565b505050565b6001600160a01b03811633146103fa5760405162461bcd60e51b815260206004820152602f60248201527f416363657373436f6e74726f6c3a2063616e206f6e6c792072656e6f756e636560448201526e103937b632b9903337b91039b2b63360891b60648201526084015b60405180910390fd5b6104048282610e30565b5050565b6001600160a01b037f00000000000000000000000000000000000000000000000000000000000000001630036104505760405162461bcd60e51b81526004016103f190612187565b7f00000000000000000000000000000000000000000000000000000000000000006001600160a01b0316610499600080516020612549833981519152546001600160a01b031690565b6001600160a01b0316146104bf5760405162461bcd60e51b81526004016103f1906121d3565b6104c881610e52565b604080516000808252602082019092526104e491839190610e5c565b50565b6001600160a01b037f000000000000000000000000000000000000000000000000000000000000000016300361052f5760405162461bcd60e51b81526004016103f190612187565b7f00000000000000000000000000000000000000000000000000000000000000006001600160a01b0316610578600080516020612549833981519152546001600160a01b031690565b6001600160a01b03161461059e5760405162461bcd60e51b81526004016103f1906121d3565b6105a782610e52565b61040482826001610e5c565b6000306001600160a01b037f000000000000000000000000000000000000000000000000000000000000000016146106535760405162461bcd60e51b815260206004820152603860248201527f555550535570677261646561626c653a206d757374206e6f742062652063616c60448201527f6c6564207468726f7567682064656c656761746563616c6c000000000000000060648201526084016103f1565b5060008051602061254983398151915290565b61066e610fc7565b61067661100d565b61067e611068565b61015c546040805163604a6fa960e01b815290516000926001600160a01b03169163604a6fa9916004808301926020929190829003018187875af11580156106ca573d6000803e3d6000fd5b505050506040513d601f19601f820116820180604052508101906106ee919061221f565b90506000610700826103e860156111cd565b6040805160148082526102a0820190925291925060009190602082016102808036833701905050905060005b601481101561078a57606483828151811061074957610749612238565b602002602001015161075b9190612264565b82828151811061076d5761076d612238565b6020908102919091010152806107828161228e565b91505061072c565b50600060c8836014815181106107a2576107a2612238565b60200260200101516107b49190612264565b6107bf9060016122a7565b905060006107cc42611274565b905060006107d942611294565b60008381527fb90953adcbf35a931ac053a7d0fe43fdd42a03d188a6bab41f6e6ed74a0821d26020908152604080832084845290915281209192509061081f90336112ae565b9150508381101561086f5760008381527fb90953adcbf35a931ac053a7d0fe43fdd42a03d188a6bab41f6e6ed74a0821d260209081526040808320858452909152902061086d9033866112d5565b505b7f4a18ce930e868f657f5661e99757ae4f8baff782138c767a6f4595d779980dd63386866040516108a2939291906122d0565b60405180910390a1505050505050506108bc600161012955565b565b600054610100900460ff16158080156108de5750600054600160ff909116105b806108f85750303b1580156108f8575060005460ff166001145b61095b5760405162461bcd60e51b815260206004820152602e60248201527f496e697469616c697a61626c653a20636f6e747261637420697320616c72656160448201526d191e481a5b9a5d1a585b1a5e995960921b60648201526084016103f1565b6000805460ff19166001179055801561097e576000805461ff0019166101001790555b6109866112f3565b61098e611322565b61099661142e565b6109ae6109a1611455565b6109a96114be565b611535565b80156104e4576000805461ff0019169055604051600181527f7f26b83ff96e1f2b6a682f133852f6798a09c465da95921460cefb38474024989060200160405180910390a150565b600082815260c960205260408120610a0e908361158c565b9392505050565b60009182526097602090815260408084206001600160a01b0393909316845291905290205460ff1690565b6060806000610a4e42611274565b90506000610a5b42611294565b90506000610aad6101f182888015610a7557610a756122ba565b8015610a8357610a836122ba565b81526020808201929092526040908101600090812087825283528181208682529092529020611598565b90508067ffffffffffffffff811115610ac857610ac8611f95565b604051908082528060200260200182016040528015610af1578160200160208202803683370190505b5094508067ffffffffffffffff811115610b0d57610b0d611f95565b604051908082528060200260200182016040528015610b36578160200160208202803683370190505b50935060005b81811115610bed57610b95816101f160008a8015610b5c57610b5c6122ba565b8015610b6a57610b6a6122ba565b81526020808201929092526040908101600090812089825283528181208882529092529020906115a3565b878381518110610ba757610ba7612238565b60200260200101878481518110610bc057610bc0612238565b60209081029190910101919091526001600160a01b03909116905280610be58161228e565b915050610b3c565b50505050915091565b6060806000610c496101f182888015610c1157610c116122ba565b8015610c1f57610c1f6122ba565b81526020808201929092526040908101600090812089825283528181208882529092529020611598565b90508067ffffffffffffffff811115610c6457610c64611f95565b604051908082528060200260200182016040528015610c8d578160200160208202803683370190505b5092508067ffffffffffffffff811115610ca957610ca9611f95565b604051908082528060200260200182016040528015610cd2578160200160208202803683370190505b50915060005b81811015610d8957610d31816101f160008a8015610cf857610cf86122ba565b8015610d0657610d066122ba565b8152602080820192909252604090810160009081208b825283528181208a82529092529020906115a3565b858381518110610d4357610d43612238565b60200260200101858481518110610d5c57610d5c612238565b60209081029190910101919091526001600160a01b03909116905280610d818161228e565b915050610cd8565b5050935093915050565b600081815260c960205260408120610355906115b2565b600082815260976020526040902060010154610dc581610e04565b6103808383610e30565b60006001600160e01b03198216637965db0b60e01b148061035557506301ffc9a760e01b6001600160e01b0319831614610355565b6104e481336115bc565b610e188282611615565b600082815260c960205260409020610380908261169b565b610e3a82826116b0565b600082815260c9602052604090206103809082611717565b6104e46000610e04565b7f4910fdfa16fed3260ed0e7147f7cc6da11a60208b5b9406d12a635614ffd91435460ff1615610e8f576103808361172c565b826001600160a01b03166352d1902d6040518163ffffffff1660e01b8152600401602060405180830381865afa925050508015610ee9575060408051601f3d908101601f19168201909252610ee69181019061221f565b60015b610f4c5760405162461bcd60e51b815260206004820152602e60248201527f45524331393637557067726164653a206e657720696d706c656d656e7461746960448201526d6f6e206973206e6f74205555505360901b60648201526084016103f1565b6000805160206125498339815191528114610fbb5760405162461bcd60e51b815260206004820152602960248201527f45524331393637557067726164653a20756e737570706f727465642070726f786044820152681a58589b195555525160ba1b60648201526084016103f1565b506103808383836117c8565b60335460ff16156108bc5760405162461bcd60e51b815260206004820152601060248201526f14185d5cd8589b194e881c185d5cd95960821b60448201526064016103f1565b600261012954036110605760405162461bcd60e51b815260206004820152601f60248201527f5265656e7472616e637947756172643a207265656e7472616e742063616c6c0060448201526064016103f1565b600261012955565b61015b5460408051637126fe6f60e11b815290516000926001600160a01b03169163e24dfcde9160048083019260209291908290030181865afa1580156110b3573d6000803e3d6000fd5b505050506040513d601f19601f820116820180604052508101906110d7919061221f565b90508034146111285760405162461bcd60e51b815260206004820152601760248201527f496e73756666696369656e7420547572696e672046656500000000000000000060448201526064016103f1565b61015b5461015c54604051631fb1244f60e31b8152600481018490526001600160a01b03918216602482015291169063fd8922789083906044016000604051808303818588803b15801561117b57600080fd5b505af115801561118f573d6000803e3d6000fd5b50506040518481523393507f9d274ae0294d2443bf2deae07adf50a459e712b401fbc806742b3f45ef7cc4da9250602001905060405180910390a250565b60608167ffffffffffffffff8111156111e8576111e8611f95565b604051908082528060200260200182016040528015611211578160200160208202803683370190505b5090508360005b8381101561126b57600061122c8684612264565b90506112388684612304565b92508084838151811061124d5761124d612238565b602090810291909101015250806112638161228e565b915050611218565b50509392505050565b600061128b6112866201518084612304565b6117f3565b50909392505050565b60006112a66112866201518084612304565b509392505050565b60008080806112c6866001600160a01b038716611967565b909450925050505b9250929050565b60006112eb846001600160a01b038516846119a1565b949350505050565b600054610100900460ff1661131a5760405162461bcd60e51b81526004016103f190612318565b6108bc6119be565b600054610100900460ff166113495760405162461bcd60e51b81526004016103f190612318565b61135161142e565b61135c600033610e0e565b6113867fa49807205ce4d355092ef5a8a18f56e8913cf4a201fbe287825b095693c2177533610e0e565b6113b07f364d3d7565c7a8300c96fd53e065d19b65848d7b23b3191adcd55621c744223c33610e0e565b6113da7f9f2df0fed2c77648de5860a4cc508cd0818c85b8b8a1ab4ceeef8d981c8956a633610e0e565b6114047ff18b77e1ef402111bacb54bd5e03494cbdba92fbd1bd3bbcc1ce77e69b42ea6c33610e0e565b6108bc7f52ba824bfabc2bcfcdf7f0edbb486ebb05e1836c90e78047efeb949990f72e5f33610e0e565b600054610100900460ff166108bc5760405162461bcd60e51b81526004016103f190612318565b60004661012003611479575073c8849f32138de93f6097199c5721a9efd91cee0190565b4661012d0361148e57506020602160991b0190565b4661a918036114a357506020602160991b0190565b4661dbe0036114b857506020602160991b0190565b50600090565b600046610120036114e25750735c1b6dba534fb4e1828278c9d9d6fa1b15a67db890565b4661012d036114f15750600090565b4661a91803611513575073e6e44a9f71940b13c44cc3782528e52b611dd1f490565b4661dbe0036114b8575073a0830985871c69c5f4788a6f95b3a238e2bb8afc90565b600054610100900460ff1661155c5760405162461bcd60e51b81526004016103f190612318565b61015b80546001600160a01b039384166001600160a01b03199182161790915561015c8054929093169116179055565b6000610a0e83836119f1565b600061035582611a1b565b60008080806112c68686611a26565b6000610355825490565b6115c68282610a15565b610404576115d381611a51565b6115de836020611a63565b6040516020016115ef929190612387565b60408051601f198184030181529082905262461bcd60e51b82526103f1916004016123fc565b61161f8282610a15565b6104045760008281526097602090815260408083206001600160a01b03851684529091529020805460ff191660011790556116573390565b6001600160a01b0316816001600160a01b0316837f2f8788117e7eff1d82e926ec794901d17c78024a50270940304540a733656f0d60405160405180910390a45050565b6000610a0e836001600160a01b038416611bff565b6116ba8282610a15565b156104045760008281526097602090815260408083206001600160a01b0385168085529252808320805460ff1916905551339285917ff6391f5c32d9c69d2a47ea670b442974b53935d1edc7fd64eb21e047a839171b9190a45050565b6000610a0e836001600160a01b038416611c4e565b6001600160a01b0381163b6117995760405162461bcd60e51b815260206004820152602d60248201527f455243313936373a206e657720696d706c656d656e746174696f6e206973206e60448201526c1bdd08184818dbdb9d1c9858dd609a1b60648201526084016103f1565b60008051602061254983398151915280546001600160a01b0319166001600160a01b0392909216919091179055565b6117d183611d48565b6000825111806117de5750805b15610380576117ed8383611d88565b50505050565b60008080838162253d8c61180a8362010bd961242f565b611814919061242f565b9050600062023ab1611827836004612457565b6118319190612487565b905060046118428262023ab1612457565b61184d90600361242f565b6118579190612487565b61186190836124b5565b9150600062164b0961187484600161242f565b61188090610fa0612457565b61188a9190612487565b9050600461189a826105b5612457565b6118a49190612487565b6118ae90846124b5565b6118b990601f61242f565b9250600061098f6118cb856050612457565b6118d59190612487565b9050600060506118e78361098f612457565b6118f19190612487565b6118fb90866124b5565b9050611908600b83612487565b945061191585600c612457565b61192083600261242f565b61192a91906124b5565b915084836119396031876124b5565b611944906064612457565b61194e919061242f565b611958919061242f565b9a919950975095505050505050565b6000818152600283016020526040812054819080611996576119898585611e7c565b9250600091506112ce9050565b6001925090506112ce565b600082815260028401602052604081208290556112eb8484611e88565b600054610100900460ff166119e55760405162461bcd60e51b81526004016103f190612318565b6033805460ff19169055565b6000826000018281548110611a0857611a08612238565b9060005260206000200154905092915050565b6000610355826115b2565b60008080611a34858561158c565b600081815260029690960160205260409095205494959350505050565b60606103556001600160a01b03831660145b60606000611a728360026124d5565b611a7d9060026122a7565b67ffffffffffffffff811115611a9557611a95611f95565b6040519080825280601f01601f191660200182016040528015611abf576020820181803683370190505b509050600360fc1b81600081518110611ada57611ada612238565b60200101906001600160f81b031916908160001a905350600f60fb1b81600181518110611b0957611b09612238565b60200101906001600160f81b031916908160001a9053506000611b2d8460026124d5565b611b389060016122a7565b90505b6001811115611bb0576f181899199a1a9b1b9c1cb0b131b232b360811b85600f1660108110611b6c57611b6c612238565b1a60f81b828281518110611b8257611b82612238565b60200101906001600160f81b031916908160001a90535060049490941c93611ba9816124ec565b9050611b3b565b508315610a0e5760405162461bcd60e51b815260206004820181905260248201527f537472696e67733a20686578206c656e67746820696e73756666696369656e7460448201526064016103f1565b6000818152600183016020526040812054611c4657508154600181810184556000848152602080822090930184905584548482528286019093526040902091909155610355565b506000610355565b60008181526001830160205260408120548015611d37576000611c72600183612503565b8554909150600090611c8690600190612503565b9050818114611ceb576000866000018281548110611ca657611ca6612238565b9060005260206000200154905080876000018481548110611cc957611cc9612238565b6000918252602080832090910192909255918252600188019052604090208390555b8554869080611cfc57611cfc612516565b600190038181906000526020600020016000905590558560010160008681526020019081526020016000206000905560019350505050610355565b6000915050610355565b5092915050565b611d518161172c565b6040516001600160a01b038216907fbc7cd75a20ee27fd9adebab32041f755214dbc6bffa90cc0225b39da2e5c2d3b90600090a250565b60606001600160a01b0383163b611df05760405162461bcd60e51b815260206004820152602660248201527f416464726573733a2064656c65676174652063616c6c20746f206e6f6e2d636f6044820152651b9d1c9858dd60d21b60648201526084016103f1565b600080846001600160a01b031684604051611e0b919061252c565b600060405180830381855af49150503d8060008114611e46576040519150601f19603f3d011682016040523d82523d6000602084013e611e4b565b606091505b5091509150611e73828260405180606001604052806027815260200161256960279139611e94565b95945050505050565b6000610a0e8383611ead565b6000610a0e8383611bff565b60608315611ea3575081610a0e565b610a0e8383611ec5565b60008181526001830160205260408120541515610a0e565b815115611ed55781518083602001fd5b8060405162461bcd60e51b81526004016103f191906123fc565b600060208284031215611f0157600080fd5b81356001600160e01b031981168114610a0e57600080fd5b600060208284031215611f2b57600080fd5b5035919050565b80356001600160a01b0381168114611f4957600080fd5b919050565b60008060408385031215611f6157600080fd5b82359150611f7160208401611f32565b90509250929050565b600060208284031215611f8c57600080fd5b610a0e82611f32565b634e487b7160e01b600052604160045260246000fd5b60008060408385031215611fbe57600080fd5b611fc783611f32565b9150602083013567ffffffffffffffff80821115611fe457600080fd5b818501915085601f830112611ff857600080fd5b81358181111561200a5761200a611f95565b604051601f8201601f19908116603f0116810190838211818310171561203257612032611f95565b8160405282815288602084870101111561204b57600080fd5b8260208601602083013760006020848301015280955050505050509250929050565b6000806040838503121561208057600080fd5b50508035926020909101359150565b803560018110611f4957600080fd5b6000602082840312156120b057600080fd5b610a0e8261208f565b600081518084526020808501945080840160005b838110156120e9578151875295820195908201906001016120cd565b509495945050505050565b604080825283519082018190526000906020906060840190828701845b828110156121365781516001600160a01b031684529284019290840190600101612111565b5050508381038285015261214a81866120b9565b9695505050505050565b60008060006060848603121561216957600080fd5b6121728461208f565b95602085013595506040909401359392505050565b6020808252602c908201527f46756e6374696f6e206d7573742062652063616c6c6564207468726f7567682060408201526b19195b1959d85d1958d85b1b60a21b606082015260800190565b6020808252602c908201527f46756e6374696f6e206d7573742062652063616c6c6564207468726f7567682060408201526b6163746976652070726f787960a01b606082015260800190565b60006020828403121561223157600080fd5b5051919050565b634e487b7160e01b600052603260045260246000fd5b634e487b7160e01b600052601260045260246000fd5b6000826122735761227361224e565b500690565b634e487b7160e01b600052601160045260246000fd5b6000600182016122a0576122a0612278565b5060010190565b8082018082111561035557610355612278565b634e487b7160e01b600052602160045260246000fd5b6001600160a01b03841681526060602082018190526000906122f4908301856120b9565b9050826040830152949350505050565b6000826123135761231361224e565b500490565b6020808252602b908201527f496e697469616c697a61626c653a20636f6e7472616374206973206e6f74206960408201526a6e697469616c697a696e6760a81b606082015260800190565b60005b8381101561237e578181015183820152602001612366565b50506000910152565b7f416363657373436f6e74726f6c3a206163636f756e74200000000000000000008152600083516123bf816017850160208801612363565b7001034b99036b4b9b9b4b733903937b6329607d1b60179184019182015283516123f0816028840160208801612363565b01602801949350505050565b602081526000825180602084015261241b816040850160208701612363565b601f01601f19169190910160400192915050565b808201828112600083128015821682158216171561244f5761244f612278565b505092915050565b80820260008212600160ff1b8414161561247357612473612278565b818105831482151761035557610355612278565b6000826124965761249661224e565b600160ff1b8214600019841416156124b0576124b0612278565b500590565b8181036000831280158383131683831282161715611d4157611d41612278565b808202811582820484141761035557610355612278565b6000816124fb576124fb612278565b506000190190565b8181038181111561035557610355612278565b634e487b7160e01b600052603160045260246000fd5b6000825161253e818460208701612363565b919091019291505056fe360894a13ba1a3210667c828492db98dca3e2076cc3735a920a3ca505d382bbc416464726573733a206c6f772d6c6576656c2064656c65676174652063616c6c206661696c6564a2646970667358221220d8f9573b45e278968e3fd21a9d168ca6d31fa7b3433356ab1fd4a913880abe1a64736f6c63430008120033",
  "linkReferences": {},
  "deployedLinkReferences": {}
}