{
  "_format": "hh-sol-artifact-1",
  "contractName": "TuringHelper",
  "sourceName": "contracts/TuringHelper.sol",
  "abi": [
    {
      "inputs": [],
      "stateMutability": "nonpayable",
      "type": "constructor"
    },
    {
      "inputs": [],
      "name": "__TuringHelper_ApiResponseGt160Bytes",
      "type": "error"
    },
    {
      "inputs": [],
      "name": "__TuringHelper_ApiResponseGt322Chars",
      "type": "error"
    },
    {
      "inputs": [],
      "name": "__TuringHelper_CallDataTooShort",
      "type": "error"
    },
    {
      "inputs": [],
      "name": "__TuringHelper_CouldNotCreateRpcClient",
      "type": "error"
    },
    {
      "inputs": [],
      "name": "__TuringHelper_CouldNotDecodeServerResponse",
      "type": "error"
    },
    {
      "inputs": [],
      "name": "__TuringHelper_GethInterceptFailure",
      "type": "error"
    },
    {
      "inputs": [],
      "name": "__TuringHelper_IncorrectInputState",
      "type": "error"
    },
    {
      "inputs": [],
      "name": "__TuringHelper_InsufficientCredit",
      "type": "error"
    },
    {
      "inputs": [
        {
          "internalType": "address",
          "name": "addr",
          "type": "address"
        }
      ],
      "name": "__TuringHelper_InvalidAddress",
      "type": "error"
    },
    {
      "inputs": [],
      "name": "__TuringHelper_MissingCacheEntry",
      "type": "error"
    },
    {
      "inputs": [],
      "name": "__TuringHelper_NoPayload",
      "type": "error"
    },
    {
      "inputs": [
        {
          "internalType": "address",
          "name": "expected",
          "type": "address"
        },
        {
          "internalType": "address",
          "name": "actual",
          "type": "address"
        }
      ],
      "name": "__TuringHelper_NotSelf",
      "type": "error"
    },
    {
      "inputs": [],
      "name": "__TuringHelper_RngFailure",
      "type": "error"
    },
    {
      "inputs": [],
      "name": "__TuringHelper_ServerError",
      "type": "error"
    },
    {
      "inputs": [],
      "name": "__TuringHelper_UrlGt64Bytes",
      "type": "error"
    },
    {
      "anonymous": false,
      "inputs": [
        {
          "indexed": false,
          "internalType": "address",
          "name": "previousAdmin",
          "type": "address"
        },
        {
          "indexed": false,
          "internalType": "address",
          "name": "newAdmin",
          "type": "address"
        }
      ],
      "name": "AdminChanged",
      "type": "event"
    },
    {
      "anonymous": false,
      "inputs": [
        {
          "indexed": true,
          "internalType": "address",
          "name": "beacon",
          "type": "address"
        }
      ],
      "name": "BeaconUpgraded",
      "type": "event"
    },
    {
      "anonymous": false,
      "inputs": [
        {
          "indexed": false,
          "internalType": "uint8",
          "name": "version",
          "type": "uint8"
        }
      ],
      "name": "Initialized",
      "type": "event"
    },
    {
      "anonymous": false,
      "inputs": [
        {
          "indexed": false,
          "internalType": "uint256",
          "name": "version",
          "type": "uint256"
        },
        {
          "indexed": false,
          "internalType": "bytes",
          "name": "responseData",
          "type": "bytes"
        }
      ],
      "name": "OffchainResponse",
      "type": "event"
    },
    {
      "anonymous": false,
      "inputs": [
        {
          "indexed": false,
          "internalType": "uint256",
          "name": "version",
          "type": "uint256"
        },
        {
          "indexed": false,
          "internalType": "uint256",
          "name": "random",
          "type": "uint256"
        }
      ],
      "name": "OnChainRandom",
      "type": "event"
    },
    {
      "anonymous": false,
      "inputs": [
        {
          "indexed": false,
          "internalType": "address",
          "name": "account",
          "type": "address"
        }
      ],
      "name": "Paused",
      "type": "event"
    },
    {
      "anonymous": false,
      "inputs": [
        {
          "indexed": true,
          "internalType": "bytes32",
          "name": "role",
          "type": "bytes32"
        },
        {
          "indexed": true,
          "internalType": "bytes32",
          "name": "previousAdminRole",
          "type": "bytes32"
        },
        {
          "indexed": true,
          "internalType": "bytes32",
          "name": "newAdminRole",
          "type": "bytes32"
        }
      ],
      "name": "RoleAdminChanged",
      "type": "event"
    },
    {
      "anonymous": false,
      "inputs": [
        {
          "indexed": true,
          "internalType": "bytes32",
          "name": "role",
          "type": "bytes32"
        },
        {
          "indexed": true,
          "internalType": "address",
          "name": "account",
          "type": "address"
        },
        {
          "indexed": true,
          "internalType": "address",
          "name": "sender",
          "type": "address"
        }
      ],
      "name": "RoleGranted",
      "type": "event"
    },
    {
      "anonymous": false,
      "inputs": [
        {
          "indexed": true,
          "internalType": "bytes32",
          "name": "role",
          "type": "bytes32"
        },
        {
          "indexed": true,
          "internalType": "address",
          "name": "account",
          "type": "address"
        },
        {
          "indexed": true,
          "internalType": "address",
          "name": "sender",
          "type": "address"
        }
      ],
      "name": "RoleRevoked",
      "type": "event"
    },
    {
      "anonymous": false,
      "inputs": [
        {
          "indexed": false,
          "internalType": "address",
          "name": "account",
          "type": "address"
        }
      ],
      "name": "Unpaused",
      "type": "event"
    },
    {
      "anonymous": false,
      "inputs": [
        {
          "indexed": true,
          "internalType": "address",
          "name": "implementation",
          "type": "address"
        }
      ],
      "name": "Upgraded",
      "type": "event"
    },
    {
      "inputs": [
        {
          "internalType": "string",
          "name": "_url",
          "type": "string"
        },
        {
          "internalType": "bytes",
          "name": "_payload",
          "type": "bytes"
        }
      ],
      "name": "APICall",
      "outputs": [
        {
          "internalType": "bytes",
          "name": "",
          "type": "bytes"
        }
      ],
      "stateMutability": "nonpayable",
      "type": "function"
    },
    {
      "inputs": [],
      "name": "DEFAULT_ADMIN_ROLE",
      "outputs": [
        {
          "internalType": "bytes32",
          "name": "",
          "type": "bytes32"
        }
      ],
      "stateMutability": "view",
      "type": "function"
    },
    {
      "inputs": [
        {
          "internalType": "uint32",
          "name": "rType",
          "type": "uint32"
        },
        {
          "internalType": "uint256",
          "name": "_random",
          "type": "uint256"
        }
      ],
      "name": "GetRandom",
      "outputs": [
        {
          "internalType": "uint256",
          "name": "",
          "type": "uint256"
        }
      ],
      "stateMutability": "nonpayable",
      "type": "function"
    },
    {
      "inputs": [
        {
          "internalType": "uint32",
          "name": "rType",
          "type": "uint32"
        },
        {
          "internalType": "string",
          "name": "_url",
          "type": "string"
        },
        {
          "internalType": "bytes",
          "name": "_payload",
          "type": "bytes"
        }
      ],
      "name": "GetResponse",
      "outputs": [
        {
          "internalType": "bytes",
          "name": "",
          "type": "bytes"
        }
      ],
      "stateMutability": "nonpayable",
      "type": "function"
    },
    {
      "inputs": [],
      "name": "Random",
      "outputs": [
        {
          "internalType": "uint256",
          "name": "",
          "type": "uint256"
        }
      ],
      "stateMutability": "nonpayable",
      "type": "function"
    },
    {
      "inputs": [
        {
          "internalType": "string",
          "name": "_url",
          "type": "string"
        },
        {
          "internalType": "bytes",
          "name": "_payload",
          "type": "bytes"
        }
      ],
      "name": "TuringTx",
      "outputs": [
        {
          "internalType": "bytes",
          "name": "",
          "type": "bytes"
        }
      ],
      "stateMutability": "nonpayable",
      "type": "function"
    },
    {
      "inputs": [
        {
          "internalType": "bytes32",
          "name": "role",
          "type": "bytes32"
        }
      ],
      "name": "getRoleAdmin",
      "outputs": [
        {
          "internalType": "bytes32",
          "name": "",
          "type": "bytes32"
        }
      ],
      "stateMutability": "view",
      "type": "function"
    },
    {
      "inputs": [
        {
          "internalType": "bytes32",
          "name": "role",
          "type": "bytes32"
        },
        {
          "internalType": "uint256",
          "name": "index",
          "type": "uint256"
        }
      ],
      "name": "getRoleMember",
      "outputs": [
        {
          "internalType": "address",
          "name": "",
          "type": "address"
        }
      ],
      "stateMutability": "view",
      "type": "function"
    },
    {
      "inputs": [
        {
          "internalType": "bytes32",
          "name": "role",
          "type": "bytes32"
        }
      ],
      "name": "getRoleMemberCount",
      "outputs": [
        {
          "internalType": "uint256",
          "name": "",
          "type": "uint256"
        }
      ],
      "stateMutability": "view",
      "type": "function"
    },
    {
      "inputs": [
        {
          "internalType": "bytes32",
          "name": "role",
          "type": "bytes32"
        },
        {
          "internalType": "address",
          "name": "account",
          "type": "address"
        }
      ],
      "name": "grantRole",
      "outputs": [],
      "stateMutability": "nonpayable",
      "type": "function"
    },
    {
      "inputs": [
        {
          "internalType": "bytes32",
          "name": "role",
          "type": "bytes32"
        },
        {
          "internalType": "address",
          "name": "account",
          "type": "address"
        }
      ],
      "name": "hasRole",
      "outputs": [
        {
          "internalType": "bool",
          "name": "",
          "type": "bool"
        }
      ],
      "stateMutability": "view",
      "type": "function"
    },
    {
      "inputs": [],
      "name": "initialize",
      "outputs": [],
      "stateMutability": "nonpayable",
      "type": "function"
    },
    {
      "inputs": [],
      "name": "pause",
      "outputs": [],
      "stateMutability": "nonpayable",
      "type": "function"
    },
    {
      "inputs": [],
      "name": "paused",
      "outputs": [
        {
          "internalType": "bool",
          "name": "",
          "type": "bool"
        }
      ],
      "stateMutability": "view",
      "type": "function"
    },
    {
      "inputs": [],
      "name": "proxiableUUID",
      "outputs": [
        {
          "internalType": "bytes32",
          "name": "",
          "type": "bytes32"
        }
      ],
      "stateMutability": "view",
      "type": "function"
    },
    {
      "inputs": [
        {
          "internalType": "bytes32",
          "name": "role",
          "type": "bytes32"
        },
        {
          "internalType": "address",
          "name": "account",
          "type": "address"
        }
      ],
      "name": "renounceRole",
      "outputs": [],
      "stateMutability": "nonpayable",
      "type": "function"
    },
    {
      "inputs": [
        {
          "internalType": "bytes32",
          "name": "role",
          "type": "bytes32"
        },
        {
          "internalType": "address",
          "name": "account",
          "type": "address"
        }
      ],
      "name": "revokeRole",
      "outputs": [],
      "stateMutability": "nonpayable",
      "type": "function"
    },
    {
      "inputs": [
        {
          "internalType": "address",
          "name": "_address",
          "type": "address"
        }
      ],
      "name": "setTuringCredit",
      "outputs": [],
      "stateMutability": "nonpayable",
      "type": "function"
    },
    {
      "inputs": [
        {
          "internalType": "bytes4",
          "name": "interfaceId",
          "type": "bytes4"
        }
      ],
      "name": "supportsInterface",
      "outputs": [
        {
          "internalType": "bool",
          "name": "",
          "type": "bool"
        }
      ],
      "stateMutability": "view",
      "type": "function"
    },
    {
      "inputs": [],
      "name": "turingCredit",
      "outputs": [
        {
          "internalType": "address",
          "name": "",
          "type": "address"
        }
      ],
      "stateMutability": "view",
      "type": "function"
    },
    {
      "inputs": [],
      "name": "unpause",
      "outputs": [],
      "stateMutability": "nonpayable",
      "type": "function"
    },
    {
      "inputs": [
        {
          "internalType": "address",
          "name": "newImplementation",
          "type": "address"
        }
      ],
      "name": "upgradeTo",
      "outputs": [],
      "stateMutability": "nonpayable",
      "type": "function"
    },
    {
      "inputs": [
        {
          "internalType": "address",
          "name": "newImplementation",
          "type": "address"
        },
        {
          "internalType": "bytes",
          "name": "data",
          "type": "bytes"
        }
      ],
      "name": "upgradeToAndCall",
      "outputs": [],
      "stateMutability": "payable",
      "type": "function"
    }
  ],
  "bytecode": "0x60a06040523060805234801561001457600080fd5b5061001d610022565b6100e2565b600054610100900460ff161561008e5760405162461bcd60e51b815260206004820152602760248201527f496e697469616c697a61626c653a20636f6e747261637420697320696e697469604482015266616c697a696e6760c81b606482015260840160405180910390fd5b60005460ff90811610156100e0576000805460ff191660ff9081179091556040519081527f7f26b83ff96e1f2b6a682f133852f6798a09c465da95921460cefb38474024989060200160405180910390a15b565b6080516122046200011a60003960008181610645015281816106850152818161078a015281816107ca015261085901526122046000f3fe6080604052600436106101405760003560e01c806352d1902d116100b65780639010d07c1161006f5780639010d07c1461036e57806391d148541461038e578063a217fddf146103ae578063ca15c873146103c3578063d547741f146103e3578063f5829b1d1461040357600080fd5b806352d1902d146102e25780635c975abb146102f7578063604a6fa91461030f5780637d93616c146103245780638129fc1c146103445780638456cb591461035957600080fd5b80632f7adf43116101085780632f7adf431461023a57806336568abe1461025a5780633659cfe61461027a5780633f4ba83a1461029a578063493d57d6146102af5780634f1ef286146102cf57600080fd5b806301ffc9a71461014557806313fcd32b1461017a57806316e54cb3146101a7578063248a9ca3146101da5780632f2ff15d14610218575b600080fd5b34801561015157600080fd5b50610165610160366004611b0e565b610423565b60405190151581526020015b60405180910390f35b34801561018657600080fd5b5061019a610195366004611bfd565b61044e565b6040516101719190611cb1565b3480156101b357600080fd5b5061018e546001600160a01b03165b6040516001600160a01b039091168152602001610171565b3480156101e657600080fd5b5061020a6101f5366004611cc4565b60009081526065602052604090206001015490565b604051908152602001610171565b34801561022457600080fd5b50610238610233366004611cf9565b610564565b005b34801561024657600080fd5b5061019a610255366004611bfd565b61058e565b34801561026657600080fd5b50610238610275366004611cf9565b6105bd565b34801561028657600080fd5b50610238610295366004611d25565b61063b565b3480156102a657600080fd5b5061023861071a565b3480156102bb57600080fd5b5061020a6102ca366004611d54565b61073b565b6102386102dd366004611d7e565b610780565b3480156102ee57600080fd5b5061020a61084c565b34801561030357600080fd5b5060f75460ff16610165565b34801561031b57600080fd5b5061020a6108ff565b34801561033057600080fd5b5061019a61033f366004611dc2565b6109ec565b34801561035057600080fd5b50610238610a54565b34801561036557600080fd5b50610238610bb0565b34801561037a57600080fd5b506101c2610389366004611e36565b610bcf565b34801561039a57600080fd5b506101656103a9366004611cf9565b610bee565b3480156103ba57600080fd5b5061020a600081565b3480156103cf57600080fd5b5061020a6103de366004611cc4565b610c19565b3480156103ef57600080fd5b506102386103fe366004611cf9565b610c30565b34801561040f57600080fd5b5061023861041e366004611d25565b610c55565b60006001600160e01b03198216632f7adf4360e01b1480610448575061044882610d25565b92915050565b6060610458610d4a565b6104817f364d3d7565c7a8300c96fd53e065d19b65848d7b23b3191adcd55621c744223c610d90565b81516000036104a3576040516391bdb74f60e01b815260040160405180910390fd5b61018d54604051631f64d85b60e21b81526000916001600160a01b031690637d93616c906104da9060019088908890600401611e58565b6000604051808303816000875af11580156104f9573d6000803e3d6000fd5b505050506040513d6000823e601f3d908101601f191682016040526105219190810190611e93565b90507ffde6d9b9b674fe8a495a825379378eb214e03439d12f342ac5e8af9768c1d85c600182604051610555929190611f01565b60405180910390a19392505050565b60008281526065602052604090206001015461057f81610d90565b6105898383610d9a565b505050565b606033301461048157604051630c6b5ee160e31b81523060048201523360248201526044015b60405180910390fd5b6001600160a01b038116331461062d5760405162461bcd60e51b815260206004820152602f60248201527f416363657373436f6e74726f6c3a2063616e206f6e6c792072656e6f756e636560448201526e103937b632b9903337b91039b2b63360891b60648201526084016105b4565b6106378282610dbc565b5050565b6001600160a01b037f00000000000000000000000000000000000000000000000000000000000000001630036106835760405162461bcd60e51b81526004016105b490611f22565b7f00000000000000000000000000000000000000000000000000000000000000006001600160a01b03166106cc600080516020612168833981519152546001600160a01b031690565b6001600160a01b0316146106f25760405162461bcd60e51b81526004016105b490611f6e565b6106fb81610dde565b6040805160008082526020820190925261071791839190610de8565b50565b6107316000805160206121af833981519152610d90565b610739610f53565b565b600033301461076557604051630c6b5ee160e31b81523060048201523360248201526044016105b4565b8261076f81610fa5565b61077884610fa5565b509092915050565b6001600160a01b037f00000000000000000000000000000000000000000000000000000000000000001630036107c85760405162461bcd60e51b81526004016105b490611f22565b7f00000000000000000000000000000000000000000000000000000000000000006001600160a01b0316610811600080516020612168833981519152546001600160a01b031690565b6001600160a01b0316146108375760405162461bcd60e51b81526004016105b490611f6e565b61084082610dde565b61063782826001610de8565b6000306001600160a01b037f000000000000000000000000000000000000000000000000000000000000000016146108ec5760405162461bcd60e51b815260206004820152603860248201527f555550535570677261646561626c653a206d757374206e6f742062652063616c60448201527f6c6564207468726f7567682064656c656761746563616c6c000000000000000060648201526084016105b4565b5060008051602061216883398151915290565b6000610909610d4a565b6109327f364d3d7565c7a8300c96fd53e065d19b65848d7b23b3191adcd55621c744223c610d90565b61018d5460405163249eabeb60e11b815260016004820152600060248201819052916001600160a01b03169063493d57d6906044016020604051808303816000875af1158015610986573d6000803e3d6000fd5b505050506040513d601f19601f820116820180604052508101906109aa9190611fba565b6040805160018152602081018390529192507f15f90c57c26684c9157add8e8154f318427a0082f188d36a0239194f5c55ec02910160405180910390a1905090565b6060333014610a1657604051630c6b5ee160e31b81523060048201523360248201526044016105b4565b83610a2081610fa5565b8251600003610a42576040516391bdb74f60e01b815260040160405180910390fd5b610a4b85610fa5565b50909392505050565b600054610100900460ff1615808015610a745750600054600160ff909116105b80610a8e5750303b158015610a8e575060005460ff166001145b610af15760405162461bcd60e51b815260206004820152602e60248201527f496e697469616c697a61626c653a20636f6e747261637420697320616c72656160448201526d191e481a5b9a5d1a585b1a5e995960921b60648201526084016105b4565b6000805460ff191660011790558015610b14576000805461ff0019166101001790555b610b1c611179565b610b24611273565b610b2c6112a2565b61018d80546001600160a01b03191630179055610b476112c9565b61018e80546001600160a01b0319166001600160a01b03929092169190911790558015610717576000805461ff0019169055604051600181527f7f26b83ff96e1f2b6a682f133852f6798a09c465da95921460cefb38474024989060200160405180910390a150565b610bc76000805160206121af833981519152610d90565b610739611347565b6000828152609760205260408120610be79083611384565b9392505050565b60009182526065602090815260408084206001600160a01b0393909316845291905290205460ff1690565b600081815260976020526040812061044890611390565b600082815260656020526040902060010154610c4b81610d90565b6105898383610dbc565b610c6c6000805160206121af833981519152610d90565b6040516301ffc9a760e01b8152631b17ebdf60e11b60048201526001600160a01b038216906301ffc9a790602401602060405180830381865afa158015610cb7573d6000803e3d6000fd5b505050506040513d601f19601f82011682018060405250810190610cdb9190611fd3565b610d025760405162bc86bb60e11b81526001600160a01b03821660048201526024016105b4565b61018e80546001600160a01b0319166001600160a01b0392909216919091179055565b60006001600160e01b03198216635a05180f60e01b148061044857506104488261139a565b60f75460ff16156107395760405162461bcd60e51b815260206004820152601060248201526f14185d5cd8589b194e881c185d5cd95960821b60448201526064016105b4565b61071781336113cf565b610da48282611428565b600082815260976020526040902061058990826114ae565b610dc682826114c3565b6000828152609760205260409020610589908261152a565b6107176000610d90565b7f4910fdfa16fed3260ed0e7147f7cc6da11a60208b5b9406d12a635614ffd91435460ff1615610e1b576105898361153f565b826001600160a01b03166352d1902d6040518163ffffffff1660e01b8152600401602060405180830381865afa925050508015610e75575060408051601f3d908101601f19168201909252610e7291810190611fba565b60015b610ed85760405162461bcd60e51b815260206004820152602e60248201527f45524331393637557067726164653a206e657720696d706c656d656e7461746960448201526d6f6e206973206e6f74205555505360901b60648201526084016105b4565b6000805160206121688339815191528114610f475760405162461bcd60e51b815260206004820152602960248201527f45524331393637557067726164653a20756e737570706f727465642070726f786044820152681a58589b195555525160ba1b60648201526084016105b4565b506105898383836115db565b610f5b611606565b60f7805460ff191690557f5db9ee0a495bf2e6ff9c91a7834c1ba4fdd244a5e8aa4e537bd38aeae4b073aa335b6040516001600160a01b03909116815260200160405180910390a1565b8063ffffffff16600103610fcc5760405163217a8ced60e11b815260040160405180910390fd5b8063ffffffff16600a03610ff357604051633ac8025f60e11b815260040160405180910390fd5b8063ffffffff16600b0361101a5760405163763d538760e11b815260040160405180910390fd5b8063ffffffff16600c03611041576040516350d1fe7b60e01b815260040160405180910390fd5b8063ffffffff16600d03611068576040516352bd56ff60e01b815260040160405180910390fd5b8063ffffffff16600e0361108f57604051634d358bcd60e01b815260040160405180910390fd5b8063ffffffff16600f036110b657604051631906151560e11b815260040160405180910390fd5b8063ffffffff166010036110dd57604051632f4e216960e21b815260040160405180910390fd5b8063ffffffff16601103611104576040516335be68ff60e21b815260040160405180910390fd5b8063ffffffff1660120361112b57604051636dc14a7b60e11b815260040160405180910390fd5b8063ffffffff1660130361115257604051630ce8936d60e21b815260040160405180910390fd5b8063ffffffff1660140361071757604051633d9b865960e21b815260040160405180910390fd5b600054610100900460ff166111a05760405162461bcd60e51b81526004016105b490611ff5565b6111a86112a2565b6111b3600033610d9a565b6111cb6000805160206121af83398151915233610d9a565b6111f57f364d3d7565c7a8300c96fd53e065d19b65848d7b23b3191adcd55621c744223c33610d9a565b61121f7f9f2df0fed2c77648de5860a4cc508cd0818c85b8b8a1ab4ceeef8d981c8956a633610d9a565b6112497ff18b77e1ef402111bacb54bd5e03494cbdba92fbd1bd3bbcc1ce77e69b42ea6c33610d9a565b6107397f52ba824bfabc2bcfcdf7f0edbb486ebb05e1836c90e78047efeb949990f72e5f33610d9a565b600054610100900460ff1661129a5760405162461bcd60e51b81526004016105b490611ff5565b61073961164f565b600054610100900460ff166107395760405162461bcd60e51b81526004016105b490611ff5565b600046610120036112ed575073c8849f32138de93f6097199c5721a9efd91cee0190565b4661012d0361130257506020602160991b0190565b4661050e0361131757506020602160991b0190565b4661a9180361132c57506020602160991b0190565b4661dbe00361134157506020602160991b0190565b50600090565b61134f610d4a565b60f7805460ff191660011790557f62e78cea01bee320cd4e420270b5ea74000d11b0c9f74754ebdbfc544b05a258610f883390565b6000610be78383611682565b6000610448825490565b60006001600160e01b03198216637965db0b60e01b148061044857506301ffc9a760e01b6001600160e01b0319831614610448565b6113d98282610bee565b610637576113e6816116ac565b6113f18360206116be565b604051602001611402929190612040565b60408051601f198184030181529082905262461bcd60e51b82526105b491600401611cb1565b6114328282610bee565b6106375760008281526065602090815260408083206001600160a01b03851684529091529020805460ff1916600117905561146a3390565b6001600160a01b0316816001600160a01b0316837f2f8788117e7eff1d82e926ec794901d17c78024a50270940304540a733656f0d60405160405180910390a45050565b6000610be7836001600160a01b03841661185a565b6114cd8282610bee565b156106375760008281526065602090815260408083206001600160a01b0385168085529252808320805460ff1916905551339285917ff6391f5c32d9c69d2a47ea670b442974b53935d1edc7fd64eb21e047a839171b9190a45050565b6000610be7836001600160a01b0384166118a9565b6001600160a01b0381163b6115ac5760405162461bcd60e51b815260206004820152602d60248201527f455243313936373a206e657720696d706c656d656e746174696f6e206973206e60448201526c1bdd08184818dbdb9d1c9858dd609a1b60648201526084016105b4565b60008051602061216883398151915280546001600160a01b0319166001600160a01b0392909216919091179055565b6115e48361199c565b6000825111806115f15750805b156105895761160083836119dc565b50505050565b60f75460ff166107395760405162461bcd60e51b815260206004820152601460248201527314185d5cd8589b194e881b9bdd081c185d5cd95960621b60448201526064016105b4565b600054610100900460ff166116765760405162461bcd60e51b81526004016105b490611ff5565b60f7805460ff19169055565b6000826000018281548110611699576116996120b5565b9060005260206000200154905092915050565b60606104486001600160a01b03831660145b606060006116cd8360026120e1565b6116d89060026120f8565b67ffffffffffffffff8111156116f0576116f0611b38565b6040519080825280601f01601f19166020018201604052801561171a576020820181803683370190505b509050600360fc1b81600081518110611735576117356120b5565b60200101906001600160f81b031916908160001a905350600f60fb1b81600181518110611764576117646120b5565b60200101906001600160f81b031916908160001a90535060006117888460026120e1565b6117939060016120f8565b90505b600181111561180b576f181899199a1a9b1b9c1cb0b131b232b360811b85600f16601081106117c7576117c76120b5565b1a60f81b8282815181106117dd576117dd6120b5565b60200101906001600160f81b031916908160001a90535060049490941c936118048161210b565b9050611796565b508315610be75760405162461bcd60e51b815260206004820181905260248201527f537472696e67733a20686578206c656e67746820696e73756666696369656e7460448201526064016105b4565b60008181526001830160205260408120546118a157508154600181810184556000848152602080822090930184905584548482528286019093526040902091909155610448565b506000610448565b600081815260018301602052604081205480156119925760006118cd600183612122565b85549091506000906118e190600190612122565b9050818114611946576000866000018281548110611901576119016120b5565b9060005260206000200154905080876000018481548110611924576119246120b5565b6000918252602080832090910192909255918252600188019052604090208390555b855486908061195757611957612135565b600190038181906000526020600020016000905590558560010160008681526020019081526020016000206000905560019350505050610448565b6000915050610448565b6119a58161153f565b6040516001600160a01b038216907fbc7cd75a20ee27fd9adebab32041f755214dbc6bffa90cc0225b39da2e5c2d3b90600090a250565b60606001600160a01b0383163b611a445760405162461bcd60e51b815260206004820152602660248201527f416464726573733a2064656c65676174652063616c6c20746f206e6f6e2d636f6044820152651b9d1c9858dd60d21b60648201526084016105b4565b600080846001600160a01b031684604051611a5f919061214b565b600060405180830381855af49150503d8060008114611a9a576040519150601f19603f3d011682016040523d82523d6000602084013e611a9f565b606091505b5091509150611ac7828260405180606001604052806027815260200161218860279139611ad0565b95945050505050565b60608315611adf575081610be7565b610be78383815115611af45781518083602001fd5b8060405162461bcd60e51b81526004016105b49190611cb1565b600060208284031215611b2057600080fd5b81356001600160e01b031981168114610be757600080fd5b634e487b7160e01b600052604160045260246000fd5b604051601f8201601f1916810167ffffffffffffffff81118282101715611b7757611b77611b38565b604052919050565b600067ffffffffffffffff821115611b9957611b99611b38565b50601f01601f191660200190565b600082601f830112611bb857600080fd5b8135611bcb611bc682611b7f565b611b4e565b818152846020838601011115611be057600080fd5b816020850160208301376000918101602001919091529392505050565b60008060408385031215611c1057600080fd5b823567ffffffffffffffff80821115611c2857600080fd5b611c3486838701611ba7565b93506020850135915080821115611c4a57600080fd5b50611c5785828601611ba7565b9150509250929050565b60005b83811015611c7c578181015183820152602001611c64565b50506000910152565b60008151808452611c9d816020860160208601611c61565b601f01601f19169290920160200192915050565b602081526000610be76020830184611c85565b600060208284031215611cd657600080fd5b5035919050565b80356001600160a01b0381168114611cf457600080fd5b919050565b60008060408385031215611d0c57600080fd5b82359150611d1c60208401611cdd565b90509250929050565b600060208284031215611d3757600080fd5b610be782611cdd565b803563ffffffff81168114611cf457600080fd5b60008060408385031215611d6757600080fd5b611d7083611d40565b946020939093013593505050565b60008060408385031215611d9157600080fd5b611d9a83611cdd565b9150602083013567ffffffffffffffff811115611db657600080fd5b611c5785828601611ba7565b600080600060608486031215611dd757600080fd5b611de084611d40565b9250602084013567ffffffffffffffff80821115611dfd57600080fd5b611e0987838801611ba7565b93506040860135915080821115611e1f57600080fd5b50611e2c86828701611ba7565b9150509250925092565b60008060408385031215611e4957600080fd5b50508035926020909101359150565b63ffffffff84168152606060208201526000611e776060830185611c85565b8281036040840152611e898185611c85565b9695505050505050565b600060208284031215611ea557600080fd5b815167ffffffffffffffff811115611ebc57600080fd5b8201601f81018413611ecd57600080fd5b8051611edb611bc682611b7f565b818152856020838501011115611ef057600080fd5b611ac7826020830160208601611c61565b828152604060208201526000611f1a6040830184611c85565b949350505050565b6020808252602c908201527f46756e6374696f6e206d7573742062652063616c6c6564207468726f7567682060408201526b19195b1959d85d1958d85b1b60a21b606082015260800190565b6020808252602c908201527f46756e6374696f6e206d7573742062652063616c6c6564207468726f7567682060408201526b6163746976652070726f787960a01b606082015260800190565b600060208284031215611fcc57600080fd5b5051919050565b600060208284031215611fe557600080fd5b81518015158114610be757600080fd5b6020808252602b908201527f496e697469616c697a61626c653a20636f6e7472616374206973206e6f74206960408201526a6e697469616c697a696e6760a81b606082015260800190565b7f416363657373436f6e74726f6c3a206163636f756e7420000000000000000000815260008351612078816017850160208801611c61565b7001034b99036b4b9b9b4b733903937b6329607d1b60179184019182015283516120a9816028840160208801611c61565b01602801949350505050565b634e487b7160e01b600052603260045260246000fd5b634e487b7160e01b600052601160045260246000fd5b8082028115828204841417610448576104486120cb565b80820180821115610448576104486120cb565b60008161211a5761211a6120cb565b506000190190565b81810381811115610448576104486120cb565b634e487b7160e01b600052603160045260246000fd5b6000825161215d818460208701611c61565b919091019291505056fe360894a13ba1a3210667c828492db98dca3e2076cc3735a920a3ca505d382bbc416464726573733a206c6f772d6c6576656c2064656c65676174652063616c6c206661696c6564a49807205ce4d355092ef5a8a18f56e8913cf4a201fbe287825b095693c21775a2646970667358221220d468c0c61afbfed30faf6dbc1d289c2c31ba575d19a52aa045cb91a92810217064736f6c63430008120033",
  "linkReferences": {},
  "deployedLinkReferences": {}
}